:4000000000400020110000005D0200005D02000008B500F03DF9C04638B512221C4B1A6000F074FC1B4800F0CBFB012000F08EFC302000F0D5FB184A184B1A60184C80253A
:40004000ED052560174B196802220A431A60164A164B1A60164B1A6808218A431A60FA20C00000F01DFC134800F010FC80221206114B1A608022D202104B1A600820104917
:4000800000F0F4FB082000F0E5FB256038BDC04630001040001BB7000600008004010B400C020B4078002E402D3E00007C002E406CF02E40DC05000008010B4000010B40E2
:4000C000690A000038B572B600221F4B1A6000241E4D0CE063001B195B00EB1899881A8858880004104300F033F90134E4B2012CF0D9EE221206164B1A6099231B04154AEE
:400100001360154A1360154A1360154B197802220A431A70134A11783C208143142001431170197816220A431A70D82212040E4B1A60C0235B030D4A13600D4A1360FFF76F
:400140006BFF00F0F5F838BD6CF02E40A01401000000024000500F4020500F4030500F4000700F4001700F4008000440080204400803044010B5064C2378002B07D1054BE8
:40018000002B02D0044800E000BF0123237010BDA8040020000000001414010008B5084B002B03D00748084900E000BF07480368002B03D0064B002B00D0984708BDC046E3
:4001C0000000000014140100AC040020C80000200000000008B5002000F01EF9011C074B188006D0064800F0D1FE002000F08EFC02E0002000F0D8FA08BDC0469413002060
:400200008014010008B5272806D0282801D0012805D1FFF7DFFF02E0012000F0C5FA08BD08B562B6012000F0BFFA012000F06EFC074800F0AFF8011C064B188005D00648B3
:4002400000F0A4FE002000F061FC01F0BBFDFCE7050200009413002080140100FEE7C04608B5094B1B681818084A821A802A02DC054A106005E000F03DFE0C2303600123E6
:400280005B42181C08BDC046CC000020801E0020F8B50F4F0F4E002412E031687368B568221C02E001C901C30432AA42FAD1F168221C01E010C304328A42FBD11036013FAF
:4002C000002FEAD100F01CFEFFF7AAFFFEE7C04601000000701B010038B5104B1A6801218A431A6000230E4C0E4D0F4808E0032B02D89A00515900E0211C9A001150013311
:400300002F2BF4D9FFF7DEFE0022084B1A60034B196801220A431A6038BDC046000010405D0200000000000000000020C00000200323044A1360044A13600022034B1A60E0
:400340007047C0463000304030003140000E3F4008B50A1C002100F011FE08BD08B500F021FA00F0DFFB08BD10B50024054B1C70054B1C70054B1C70FFF7F0FF044B1C7096
:4003800010BDC0467B1E0020741E00207A1E00209813002010B58AB0041C164B1B78002B04D1FFF7E1FF0122124B1A70002C1ED004A81149182200F0D8FD062300930F4B54
:4003C00001936E23FF3302930D480E490E4A04AB01F00EFD0D4B1C60002809D101220C4B1A700C48262112220CF078FC00E001200AB010BDC404002000150100801501002D
:400400008D050000A0130020CC0A00009C130020701E00200017010008B5022832D81D4B1B78042B30D11C4B1B7859072FD400280BD11A4B1A1C40321E2111822022596C89
:400440000A805B6C30225A800EE001280CD1134B1A1C403200211182C822D200596C0A805B6C8022D2015A800D4B18700B4840300AF090FD00280CD1074B197804220A43AB
:400480001A7006E0012004E00420FF3001E00420FF3008BD701E00207B1E0020D00000207A1E00207047C04603784078000218437047C04638B5041C83890B2B1FD10430EF
:4004C0000021221C40230CF021FC051E11D16068FFF7EAFF830706D50A4B1B6882204000211C984705E0074B1B680620FF30211C9847054B1A7801218A431A7000E00025AF
:40050000281C38BD9C1300207B1E0020024B00225A701A707047C046781E00208379002B07D000200BE0C25C002A07D10133DBB200E00023052BF6D9002000E00120704700
:4005400010B582B0041CFFF7B5FF0F4B1B78DA0704D5002802D1201C00F0E6FA0A4B1B78DA070ED4002809D001A912238B70A3890B80C87020680BF031FE02E020680BF080
:4005800093FE02B010BDC0467B1E0020F0B583B0041C0E1C744B1D7801222A431A70282876D00CD821285ED004D8012819D0052855D0C7E026286FD0272865D0C2E04328E6
:4005C00000D1AEE006D8412800D199E0422800D1A4E0B7E04C2800D1ABE0FA2800D1ACE0B0E001AD07272F7000236B70281C03F044F82F7001236B70281C03F03EF85B4B39
:400600001D68281CFFF78AFF00280CD0281C01F0DDFB564D28680021FFF744FF28680121FFF740FF14E0524B1B78524D2B70524B1B786B70514B1B78AB70281C01F0C6FB44
:40064000281C0021FFF72EFF281C0121FFF72AFF00200AF061FB0422494B1A7072E00A78484B1A706EE0404B1B7899066AD4464B1B78102B02D10522434BDA70434B18782A
:4006800041490AF051FC5DE002223D4B1A7059E004223B4B1A7055E0394B1B78022B51D0314A1278D1074DD52F4A1278510708D50322334B1A702C4B1A7804218A431A7004
:4006C00040E0294A1278110708D504222C4B1A70254B1A7808218A431A7033E0032B31D10422274B1A702A4B1B78002B2AD10120FFF792FE002825D10322214B1A7021E0CB
:40070000224D281C022200F030FC29788900214B59182148042200F028FC13E0FFF7F6FE10E04988162900D9172130880BF062FD08E0081CFFF704FF04E0184B197801221C
:400740000A431A70084B1A7811231A4209D0064B1A7801218A431A70114B1B68201C311C984703B0F0BDC0467B1E0020240100207CF1FF0F280100207DF1FF0F7BF1FF0F93
:40078000701E0020741E002004020020781E00207A1E0020001A01006C1E0020981300209C1300207047C046044B1968BF220A40800140210840104318607047000304403B
:4007C0000230800803D00138FDD1C046C046C0467047EFF3108072B6704780F31088704710B586B0041CFFF7F4FF0E4B1B6800930D4B1B680193033C0C4B1B5D02930C4BAD
:400800001B68039304AA0B4B049300AB05930A4B1A600A490A4A11601B68FFF7DEFF06B010BDC04608010B4000010B40801A010030001040B6EA00000800104017000080B1
:4008400004001040024B1B68012018407047C0460C002E401F23184001238340181C014B1860704700E100E001BE704738B5041C0D1C1F2802D90020FFF7F6FFA400024BE9
:40088000E4182068256038BD4000002008B5034B1B7A5843FFF794FF08BDC0460802002010B5041C0F4B196801220A431A600E4A0E4B1A600E4B1968802212020A431A60F5
:4008C000002809D100200CE00120FFF7DFFFFFF7B9FF002804D1013C002CF5D1102000E0002010BD60F02E400220000078002E4010002E40044B1A68C0231B021A4201D0DC
:40090000012000E00020704700010B4010B50D4B1A6801218A431A601A68022082431A60094A10683024A04310242043106010680724A043014311601968802212060A43DC
:400940001A6010BD00F02E4000FF2E4038B5031C1D4A12680120041C1440002B02D0012B16D02BE0184B19680122914319601968022081431960154B196830208143102070
:40098000014319601968072081430A431A6018E00D4B1A6802218A431A600C4A10680725A84301431160116830208143202001431160196801220A431A6002E00020FFF78C
:4009C00053FF201C38BDC04600F02E4000FF2E4008B5FFF7FEFE044B1968C02212020A431A60FFF7FAFE08BD00010B4010B5FFF7F0FE084B1968084A11408024E40121435B
:400A0000196019680A40802109020A431A60FFF7E4FE10BD00010B40FF3FFFFF38B5051CFFF7D7FE041CFFF765FF002803D0FFF7DDFF012200E00022084B1D40084B18680A
:400A4000084901400D431D601B68012A01D1FFF7BFFF201CFFF7C1FE38BDC0460404040010020B40FBFBFBFF10B5244B1B685A0715D5234B1B685A070ED5224B9C690422CF
:400A800014401F490868A0430860996991439961DB68002B00D098470420FFF7BFFF174B1B685A0518D5164B1B685A0510D5154B9A698020C0001040114A11688143116085
:400AC0009969114A0A409A611B69002B00D098478020C000FFF7A2FF084B1B685A030CD5074B1B685A0304D5064B5B69002B00D098478020C002FFF791FF10BD10020B40DF
:400B000018020020C8040020FFFBFFFF044B1968BF220A40800140210840104318607047000204407047C04670B582B0041C03886A4613800023019383890F2B17D10023A0
:400B400093704068FFF7B0FCC30702D5CA26760001E09626FF361E4B197802220A431A701C4B1A7801218A431A70002516E0132B12D102236A46937042681378012B03D19F
:400B800000259426FF3601E080250026114B1A7801218A431A7001E000250026002E14D0201D0021221C40230CF0B0F8051E0CD1094B1B68002B03D0301C6946984704E09A
:400BC000064B1B684C20211C9847281C02B070BD981300207B1E0020E40400209C1300200160704701607047244B1A781202244B1B781A43234B1B781B02234909780B431E
:400C000022498B4201D1072A06D0D42109018B4206D1042A04D102E01D4B042200E01C4B1C490B601C4B1A601C4B1B781B021C4A1278134380229201934202D0002B02D05F
:400C400002E0184B00E0174B174A1360174B1B781B02174A12781343164A934205D0164A934204D0052B05D103E0144B02E0134B00E0124B124A13607047C046D9F0FF0F8B
:400C8000D8F0FF0FDFF0FF0FDEF0FF0F580B0000580D00006C002E4074002E40DBF0FF0FDAF0FF0F0220000078002E40DDF0FF0FDCF0FF0F0F0F000005050000050F000077
:400CC00080002E4008B5FFF7E1FD08BD08B500F031F808BD08B500F035F808BD08B500F031F8034800F00EF8032000F011F808BD8D0D000008B5024800F02CF808BDC046FE
:400D00008D0D0000014B18677047C0460000002010B5041CFFF75DFD054B1968C0229143A2010C1C14431C60FFF757FD10BDC0460CE400E080225201014B1A607047C046B2
:400D400000E100E080225201014B1A607047C04680E100E010B5041CFFF7F4FF201CFFF7D1FF0320FFF7D4FFFFF7E4FF10BDC04608B5FFF72EFD044B1A6804218A431A6076
:400D800030BFFFF72AFD08BD10ED00E008B510F02DFB08BD002934D00123002210B488422CD301242407A14204D2814202D209011B01F8E7E400A14204D2814202D24900B9
:400DC0005B00F8E7884201D3401A1A434C08A04202D3001B5C0822438C08A04202D3001B9C082243CC08A04202D3001BDC082243002803D01B0901D00909E3E7101C10BC53
:400E00007047002801D00020C04307B4024802A14018029003BDC046D90000000029F0D003B5FFF7B9FF0EBC4243891A1847C046002941D010B4041C4C40A446012300222E
:400E4000002900D54942002800D5404288422CD301242407A14204D2814202D209011B01F8E7E400A14204D2814202D249005B00F8E7884201D3401A1A434C08A04202D3E5
:400E8000001B5C0822438C08A04202D3001B9C082243CC08A04202D3001BDC082243002803D01B0901D00909E3E7101C6446002C00D5404210BC7047002806D003DB00204C
:400EC000C043400801E08020000607B4024802A14018029003BDC046190000000029EBD003B5FFF7A7FF0EBC4243891A1847C0467047C046014B18687047C046A004002016
:400F000070B50E4B0E4D0024ED1AAD101E1CAC4204D0A300F35898470134F8E710F016FE084B094D0024ED1AAD101E1CAC4204D0A300F35898470134F8E770BD581B0100F0
:400F4000581B0100581B0100601B010030B50023934208D0C55C0133CC18013C2478A542F6D0281B00E0002030BD10B50023934203D0CC5CC4540133F9E710BD031C8218FF
:400F8000934202D019700133FAE770470FB40B4B13B51C68002C05D0A369002B02D1201C00F09CFC05ABA168201C049A019300F02FF816BC08BC04B01847C046A004002050
:400FC000936810B5013B9360002B05DA9469A34208DBCBB20A2B05D01368581C10601970C8B201E000F0A6FA10BDF8B5061C0F1C141CD518AC4208D02178301C3A1CFFF7FE
:40100000DFFF0134431CF5D100E00020F8BD0000F0B59FB0061C0F1C03920593002804D08169002901D100F059FC754B9F4201D1776808E0734B9F4201D1B76803E0724BC5
:401040009F4200D1F768BB891A070AD53B69002B07D006AD00236B6120236B763023AB763BE0301C391C00F0BDFA0028F1D001204042C2E0059A111D12680591002A76DB52
:401080000992013423782E2B00D181E021785F48032200F0E3FC002807D05C492A68431A402098401043286001342178631C584806220393297600F0D1FC002800D18AE0F6
:4010C000544B002B7ED1059B072207339343083305936A69049953186B61039C2378002B04D10399611A029110D003E0252BF8D00134F3E7301C391C039A029BFFF775FF71
:40110000013075D06A69029953186B612378002B6ED0012252426A606A4600235B3201342B60EB60AB601370AB6521783A48052200F094FC002808D0374A0134831A0120D0
:4011400098402B6818432860EFE72B68D90603D56A4620215B3211701A0703D56A462B215B32117022782A2A84D0099B05E05242EA60022213432B6083E72278303A092AB0
:4011800004D80A214B4301349B18F6E7099379E763782A2B09D1059B02341A1D1B680592002B0DDA01235B420AE0013400232278303A092A04D80A214B4301349B18F6E702
:4011C000079363E705AB0093301C291C3A1C134B00E000BF07E005AB0093301C291C3A1C0E4B00F091F804900499013100D070E7BB895A0600D53AE70B981FB0F0BDC046B8
:40120000EC1A01000C1B01002C1B0100BE1A0100C21A010000000000B81A0100EB0F0000F7B5151C01930A698B68061C0C1C934200DA131C221C2B6043321278002A01D0F2
:4012400001332B602068800602D52B6802332B60216806270F401FD0231C43331B785A1E9341226892061FD5E11840313020C870211C5A1C45310978A21840320233D1709B
:4012800012E0221C301C019919320123089FB847013011D0009F01370097E0682968009F431A9F42EDDBD7E7221C301C01994332089FB847013002D10120404223E02068D6
:4012C00006212B68E26801400025042903D1D51AEB43DB171D40A26823699A4201DDD31AED1800270097009FAF420BDA221C301C01991A320123089FB8470130DCD0009FEC
:401300000137EFE70020FEBDF0B50D1C8BB0433506920590079304950B7E0C1C109A6E2B00D1A7E011D8632B22D009D8002B00D1B0E0582B00D0C0E045310B707B4D4EE0E7
:40134000642B1CD0692B1AD0B7E0732B00D1A5E009D86F2B29D0702B00D0AEE00E68202333430B6036E0752B1FD0782B32D0A4E013680D1C191D423511601B689FE02168C7
:4013800013680E0603D5191D11601E6805E04806F9D5191D116000215E5E644B002E3BDA049D2D2276422A7036E0216813680E0603D5191D11601E6804E04806F9D5191D77
:4013C0001E881160594B227E039308276F2A1ED00A271CE0231C78214533554D197011682368081D039510601E0601D50E6802E05806FBD50E88D90702D520221343236085
:401400001027002E03D1226820239A432260231C002243331A7001E003930A276368A360002B03DB2568042295432560002E02D1049D002B0ED0049D301C391CFFF7EEFC8A
:401440000398013D435C301C2B70391CFFF7A2FC061EF1D1082F09D12168C90706D5626823699A4202DC013D30232B70049E731B23612AE0086813684969050604D5181D49
:4014800010601B68196005E04606F8D5181D10601B68198000232361049D16E01368191D11601D68281C00F0DFFB63682061984200D923612069606004E0251C42352B700B
:4014C00001232361049E00233370079E05980096211C09AA069BFFF7A3FE013002D10120404221E02A1C059806992369079DA8470130F4D02668B60705D4099BE0689842B4
:4015000012DA181C10E00025E0680999431A9D42F3DA221C0598069919320123079EB0470130DCD00135EFE70BB0F0BDC91A0100DA1A010070B5051C0E1C141C002804D038
:401540008269002A01D100F0C9F9234B9C4201D16C6808E0214B9C4201D1AC6803E0204B9C4200D1EC68A369A360A3891A070AD52369002B07D022682369F6B2D01A62693B
:4015800090420FDB08E0281C211C00F02BF80028F1D0012040421DE0281C211C00F01EF90028F6D1A3680130013BA36023685A1C22601E706369984205D0A389301CDA0793
:4015C00008D50A2E06D1281C211C00F007F90028DFD1301C70BDC046EC1A01000C1B01002C1B0100344B70B51D68061C0C1C002D05D0A969002902D1281C00F06FF92F4B27
:401600009C4201D16C6808E02D4B9C4201D1AC6803E02C4B9C4200D1EC68A28993B2190721D4D90605D40923336040231A43A2813FE05A0713D5616B002908D0231C4433DB
:40164000994202D0301C00F015FA00236363A38924229343A3810023636023692360A38908221343A381216900290BD1A389A02292001A4080239B009A4203D0301C211C79
:4016800000F09CF9A38901221A4005D061690022A2604A42A26103E0990700D46269A26022690020824206D1190604D540221343A3810120404270BDA0040020EC1A0100D1
:4016C0000C1B01002C1B0100F7B58B89051C0C1C19075ED46268002A02DC276C002F1ADDE76A002F17D000222E682A60802252011A4001D0626D15E0281C216A0123B84715
:40170000021C411C0ED12B68002B0BD01D2B01D0162B02D12E6000205EE0A38940210B43A38159E0A3895F0706D56168636B521A002B01D0276CD21B281C216A0023E76A36
:40174000B847A289411C06D12B68002B03D01D2B01D0162B19D10023636023692360D70405D5411C02D12A68002A00D16065616B2E600029CFD0231C4433994202D0281C41
:4017800000F078F90020606326E040231A43A28122E02669002EBED027680022BF1B01972660990700D16269A260019F002FB2DD281C216A321C019BA76AB847002806DC97
:4017C000A389402213430120A381404204E0019F36183F1A0197E8E7FEBD00000A6938B5051C0C1C002A01D100201CE0002804D08369002B01D100F071F80B4B9C4201D1EC
:401800006C6808E0094B9C4201D1AC6803E0084B9C4200D1EC680C22A35E002BE4D0281C211CFFF751FF38BDEC1A01000C1B01002C1B0100F8B5041C071C4834002C12D0E0
:40184000A5686668013E0CD4AB89012B07D90E22AB5E013303D0381C291CFFF7BFFF6835F0E72468EAE7F8BD002310B5041C03604360836081814366C28103614361836150
:40188000191C08225C30FFF779FB054B24626362044BA362044BE362044B236310BDC046D11B0000F91B0000311C00005D1C000070B54B1E68255D430E1C291C743100F023
:4018C00021F9041E08D00021016046602A1C0C30A0606832FFF752FB201C70BD836913B5041C002B27D18364C3640365124B134A1B688262984201D101238361201C00F076
:401900001FF86060201C00F01BF8A060201C00F017F80421E06000226068FFF7A5FFA06809210122FFF7A0FFE06812210222FFF79BFF0123A36113BDB41A01003518000040
:40194000F8B51D4B071C1E68B269002A02D1301CFFF7C4FF4836B4687368013B05D40C22A55E002D10D06834F7E73368002B06D1381C0421FFF79CFF3060002801D036687C
:40198000E9E70C233B6016E001235B42E381201C0123A38165662560A560656025616561A5615C30291C0822FFF7E8FA6563A563A564E564201CF8BDB41A0100F0B58B8914
:4019C00091B0051C0C1C9A0725D40E23C95E002906DAA78980231F400FD0002740260EE001AA00F06FF90028F3DB029BF0273F02184A1F40BF187B425F418026F600281C13
:401A0000311C00F07FF800280CD1A3899A051FD402221343A381231C4733236023610123636115E00C4B8022AB62A38920601343A38120616661002F0AD00E23E15E281CC3
:401A400000F052F9002803D0A38901221343A38111B0F0BD00E0FFFF35180000C9B28218904204D003788B4202D00130F8E700207047000030B5002940D004390B68002B19
:401A800000DAC9181E4A1368141C002B02D14B60116033E099420FD208680A189A4205D113685268C01808604A6000E04B60216024E08A4203D8131C5A68002AF9D11D68EB
:401AC0005C198C420BD10968691858181960904214D114685268091919605A600EE08C4202D90C23036009E008680C18944203D114685268001908604A60596030BDC0464D
:401B00009013002070B50323CD1C9D430835061C0C2D01D20C2501E0002D3FDB8D423DD3204B1C681A1C211C002913D00868431B0DD40B2B02D90B60CC181EE08C4202D10F
:401B4000636813601AE0486860600C1C16E00C1C4968E9E7144C2068002803D1301C00F025F82060301C291C00F020F8431C15D0C41C03239C4384420AD12560201C0B30DA
:401B80000722231D9043C31A0BD05A42E25008E0211A301C00F00AF80130EED10C233360002070BD901300208C13002038B5074C0023051C081C2360FEF752FB431C03D1E1
:401BC0002368002B00D02B6038BDC0467C1E002038B50C1C0E25495F00F0ACF8002803DB626D1318636503E0A289024B1340A38138BDC046FFEFFFFFF8B51E1C8B89051CFE
:401C00000C1C171CDA0505D50E23C95E0022022300F07CF8A289054B281C1340A3810E22A15E331C3A1C00F027F8F8BDFFEFFFFF38B50C1C0E25495F00F068F8A389421C09
:401C400003D1054A1340A38104E0802252011343A381606538BDC046FFEFFFFF08B50E23C95E00F01DF808BD0023C25C0133002AFBD1581E7047000038B5084C051C0020D2
:401C80002060081C111C1A1C00F090F8431C03D12368002B00D02B6038BDC0467C1E002038B5074C0023051C081C236000F056F8431C03D12368002B00D02B6038BDC04604
:401CC0007C1E002038B5074C0023051C081C111C236000F04BF8431C03D12368002B00D02B6038BD7C1E002038B5074C0023051C081C236000F042F8431C03D12368002B6E
:401D000000D02B6038BDC0467C1E002038B5084C051C00202060081C111C1A1C00F036F8431C03D12368002B00D02B6038BDC0467C1E002038B5084C051C00202060081CCD
:401D4000111C1A1C00F02AF8431C03D12368002B00D02B6038BDC0467C1E0020024B5822012040421A6070477C1E0020024B5822012040421A6070477C1E0020024B582284
:401D800000201A607047C0467C1E0020024B5822012040421A6070477C1E0020024B5822012040421A6070477C1E0020024B5822012040421A6070477C1E002010B501F05D
:401DC000FDFB10BD10B500F067F910BD10B50749044609780220002907D1204601F00FFC002802D1204609F081F810BD26030020FFB585B0002568460E9F057339481C462A
:401E00000078002802D0082009B0F0BD10990F9801900097029105A807C800F067F80028F2D10120694603AA0D73002C1BD0002113E08B00E55A082D09D91E19B678002E45
:401E400005D0083DE55213785B1C137003E0042901D2012003E0491CC9B2B942E9D31178042900D300200028CED110990F9800F057FF002801D00120C6E701F09FFB1A4854
:401E80000599016021888180A188C180A27A0272A17B4172A089012540084843A0810220A073208950432081A5726846037B22460799069800F0A2F80028A5D16846094C47
:401EC000007B607001F082FB00289DD1064806F0E7F9002898D106F003FA002894D1257092E700001C020020E8040020FFB53A4F1C4603463F780020364A0A9E0B9D002F48
:401F000012D100290FD0029991420CD3002B0AD0002C08D00999042905D3002E03D0FF216E318D4202D2012004B0F0BD00210A460D463FE08B001E19B678002E36D0E35A90
:401F4000002B33D073435B199DB20B0000F048F806040E15191D253F2388FF27A678233BEB37BB42DFD2032EDDD31FE0A3880C2BD9D91A4EB342D6D818E02389302BD2D1FA
:401F800014E0A389482BCED110E0228A134E1346233B223EB342C6D208E0A38A0F4F1E46233E223FBE42BED29342BCD80028BBD1491CC9B2099B9942BCD319461C225143E9
:401FC0004A190449521802998A42ACD8ACE70020EEE70000D80800001C020020DCFF000030B47446641E2578641CAB4200D21D46635D5B00E31830BC18470000FFB50F4692
:4020000006460024384381B01D46800701D0012438E0FEF76FFEFEF75DFE00F097FA00282ED100F0D3FB00282AD11849084600F0ABFE0004000C23D13000154E04D030600E
:40204000B7800020F0803581AD1DEFB23946039800F046F804000ED1B088F2880837801AF9B280B201F080F9002801D0012407E0E8B200F019F900F031F9064901200870D8
:4020800000F076FA204605B0F0BD0000CD210000F40400201E02002010B503480078012801D101F003F810BD1E02002070B5084B0446DA889E8800205518B54206D81D6805
:4020C000AA182260DA885118D98070BD032070BDF40400200148008970470000F4040020F0B587B007460D4600208900009006916846FFF7DBFF844600285DD13048009947
:402100000160002117E02E4B88001A680629115406D22C4C0419667882185670628805E0C419203CA67A8218567022891B68C018491C4280C9B2A942E5D300242DE0601CE4
:40214000C2B2059025E01E4FA30039689600581840887118039604904E88B04217D938466F46FE80B6464F786E4677710297049F4F800168039F5E18767879184E70016822
:40218000764659184E800068029F18184770521CD2B2AA42D7D30598C4B2AC42CFD36046002809D168460699FFF780FF8446002802D1054900980860604607B0F0BD000082
:4021C00020020020801B0100240200207047000010B5002809D005494A68002A05D0011F08788000105801F06DF810BD2002002010B50446FFF76EFFC0B2801DA0420CD310
:4022000007484068002808D0A100405800F0CCFF002801D00470001D10BD002010BD000020020020F8B516460D460446FFF752FFC0B2801DA04203D20020C0430090F8BD12
:40224000B2B2E9B2684600F0D5FF0099481C03D0024AA000526811500098F8BD20020020F8B50746FFF736FF801DC6B20A49002005460C680DE06178002907D06188B94271
:4022800002D32078FFF7B4FF002804D1241D6D1CEDB2B542EFD3F8BD2002002010B5002801D0FFF795FF10BD70B506460948002504680BE06178002905D062882078121D17
:4022C0000023FFF7AFFF241D6D1CEDB2B542F1D370BD000020020020002070471CB5002469460C70142001902346054A05480CF0C1FC04480068401C00D1FF2420461CBDC7
:4023000059230000280200203EB5124A0146FF2000230124126800290DD0012914D0042908D104206946009308814B8110460CF09CFC80B23EBD684600930481438169463B
:4023400010460CF08DFCF4E768460093048143816946EBE72802002070B545890468416800890300FFF73CFE06240408081D2124002004F06BFF1BE0022908D0C8B22A4688
:4023800021460AF021FF2046FFF788FF10E002202A4621460AF018FF2946204600F00AF806E000200CF05AF902E020460CF0E8FC002070BD014B0022DB6818472C020020D0
:4023C00070B5448905680089022803D0032809D0FF2070BD2246094C0023A46829460120A04708E0FFF7EAFC241DA2B200232946022005F038FE002070BD00002C02002072
:40240000704700000248002141600180418070472C02002070B50C46002186B016460391012802D0022859D116E003A9012005F072FE01281BD1039D324621462846FEF766
:4024400094FD0095287801900220694608814E816846FFF7B5FF41E0214D002B686809D0049004A9022005F056FE01281DD0022006B070BD002812D0298840182146FEF7EB
:4024800074FD28880024801980B228806988091D884206D12C801348FFF792FF03E00320E6E788421AD96C6018E004986860E278A378110219430B4A698000231060E35678
:4024C0005360032313815181A1788170E178C1706178417021780170042028800020C7E72C020020000500203EB515460C46022803D004280CD000203EBD00910190022064
:402500006946088107484A8100680CF0AEFB07E00AF05AFE044B0022DB6829462046984701203EBD280200202C020020014AD160906070472C020020034801688068081AB8
:402540000A214843000970470C05002010B5FEF7C5FB542204490548FEF707FD03490120C870002010BD00009C1B0100EC07002010B5FEF7ABFB10BD70B5134C2368002B6D
:4025800008D0207B1149C20705D04008400020738868A08070BD88680B4AA18880B29268814203D90A4D691A091802E0814202D2411A5118A160A080A0689842EAD300F037
:4025C00015F80CF06FFB70BD0C050020C0102E40FFFF000010B508461946FFF7A7FF10BD704710B5FFF780FF10BD000003480021016041608160C160704700000C050020DD
:4026000010B502000DD0FFF7F1FF074C0321207B0843207310010A21FEF700FC2060002010BDFF2010BD00000C05002000B504480A21806848430209FFF7D8FF104600BDDF
:402640000C0500200248007B8007C00F704700000C05002010B537490868002802DA364B01221A70022290430860344800693149C00B4031096A08425AD0012000F02AFA29
:402680002E482F497C30FEF7ADFA2A480E216C30FEF7A8FA294820218430FEF7A3FA274814219C30FEF79EFA2448FF21C131A430FEF798FA2148FF212F31B030FEF792FAF8
:4026C0001E482049BC30FEF78DFA1C481E49AC30FEF788FA1C491948491CB430FEF782FA16481A49B830FEF77DFA14481849CC30FEF778FA114817490830FEF773FA0F4826
:402700001549A830FEF76EFA0C4814498830FEF769FA0A4812498C30FEF764FA07481921C9029030FEF75EFAFEF75EFA002010BDFF2010BD00F02E403C02002000002E40D8
:4027400055650000320300002F3F00003102000010520000EC160000FA12000031D000003AE3000070B50646581C80B245086D00002408E0304600F07FF81055000A1119E8
:40278000A41C4870A4B2AC42F4D3D80705D0D0182038D15CC47FD454C17770BD30B50A4C002100195B1E07E0541864782502545C2C430480891C89B29942F5DB994201D186
:4027C000515C018030BD000000102E4010B5FF2000F080F90F49FF2048700E481021801D41800121417001700A490020C91C4870FFF730FF04000AD100F0CCF8072106485D
:40280000FEF7EEF9044807211830FEF7E9F9204610BD00003C020020CC112E4030B504465B1C1804450C002308E0204600F024F8241D59005B1CA4B250529BB2AB42F4D3B3
:4028400030BD000070B500210A4D5B1E0AE0541864782602545C344346193480001D891C80B289B29942F2DB994202D1515C4019018070BD00102E40014940180088704729
:4028800000102E40014A80180180704700102E4010B50B490020487000F07CF8002000F03FF9002000F02CF907210648FEF798F9044807211830FEF793F9002010BD000009
:4028C0003F020020CC112E4010B50B46062812D006DC01280CD0032801D1FFF7D9FF10BD0A28FCD00B28FAD105480078107010BDFFF76CFF10BD1146184600F02DF910BDB3
:4029000042020020F8B5204DAC6A0127A0071F4E002816DA307806280ED1286A384328621B480069F903084381B219481030FEF759F9042000F0CEF8134802212830FEF790
:402940004FF9E00711D0062000F0C4F80F49FF20C91E48707078002802D1686B38436863094801212830FEF73BF9E0050BD53078042802D1052000F0ADF80348FF210131AC
:402980002830FEF72DF9F8BD40F02E403F02002000002E4010B503212348FEF723F90120FEF790F920483038406A204C80076178800F890001431C480C38FEF713F960785B
:4029C000002808D0401E022181401820FEF786FAC000083800E0B82081B21548FEF702F91348032109021438FEF7FCF810481149B830FEF7F7F8452189010F48FEF7F2F84D
:402A00000D480321001FFEF7EDF80C490C48FEF7E9F80B480B496038FEF7E4F8084801218838FEF7DFF810BD70F02E4042020020D8102E4090890000041E2E40FF0F00008B
:402A400058122E40209000000849087806280BD148780749002803D1486B400840004863C86A01221043C862704700003F02002040F02E4001480078704700003F020020A0
:402A800000B50300FFF7ACFA080D050D0B070507090D012000BD032000BD042000BD022000BDFF2000BD0000074A9168D26889B2064B92B2994204D105498A4201D10121FB
:402AC00000E000210170704780002E4033D000003FE3000010B50446FEF7FCF8072C01D9FF2C01D102480470FEF7F0F810BD00003F02002001494870704700003C020020B8
:402B000010B5064A012805D01921C9021046FEF769F810BD1D21C902F8E7000090002E4010B50A4A141D012808D009491046FEF759F808492046FEF755F810BD044910467C
:402B4000891CFEF74FF80349491DF3E788002E4031D000003AE300000078074AFF2803D04C2804D9553803E01078087070474F3808701070704700003E020020F0B501223B
:402B8000002830D000292ED00224420600D003246D2342065B06D21800D0641C034600221EE00C2516466E43104D00277519AF720E4F002ABB51696007D0661EB24209D18F
:402BC00006466D367606760E05E05E06760E8027BE1B00E080269B198919521C2E81D2B2A242DED300221046F0BD00008C060020074900200C2242435218927A012A05D017
:402C0000401CC0B20428F5D300207047012070478C060020F8B5044616460F000BD0184D6868A04203D9FF306E30A04203D3FF206E30864201D90120F8BD2046FEF786F9AD
:402C400000281BD0324639462046FEF78EF9F0B200210C224A43521913895668F718A74208D90127A41B1B1B9772834206DAC01A1469C0B2491CC9B20429EAD30020F8BD19
:402C80008C06002010B500F05BF80648FF22C1686E320C460448FEF768F903492046FFF76DFF10BD480200201C050020002070470020054A002902D0012902D002E05060D3
:402CC00000E09060002070474802002070B5084C154608460549A26889182A46FEF745F9A0684019A06028B270BD00001C050020480200203EB50A226946FFF7E7FF0446FE
:402D000006480A2200686946FEF720F9002802D00020C0433EBD20463EBD000048020020002803D0FF226E32914201D2FF20704702490A61C86000207047000048020020BA
:402D40000248002141608160704700004802002070B5074C15460548626880182A46FFF759FF60684019606028B270BD1C0500204802002010B503490A220968FFF7E8FFE7
:402D800010BD00004802002010B50F4A002313600E4A13600E4B18600E4801600E49012008600E490860000290600E490C4808600D4914300860FF381538506000F0BCF857
:402DC00000F0CAF9002010BD740200205C020020880200208C0200207802002068020020BC0700206C02002080020020014610B50020002910D0094B1A689C685118A14235
:402E000009D25868196080188A0704D08A07920F891A091D196010BD002010BD5C020020F8B50024164E671E321F3D463168136806E01422624310328A58521C1BD0641C75
:402E40009C42F6D36A1C14D02C461422544322460C3288500C214843FFF7C8FF3168002808510AD031680020103408517068401C70602846F8BD2546E4E73846F8BD000035
:402E80006C020020F3B50026F64381B000281BDB1E490968884217D80299002914D01B4F142204463F1D54432546396810354859401C09D0FDF70EFF38682F1F4159C3594C
:402EC000994203DBFDF702FF3046FEBD214608310091465801590C20704308180C220299FEF743F80948761C001D0068C159B14200D100260549009A091D86500868415978
:402F0000491C4151FDF7E2FE0020FEBD68020020002803DB07490968884202D90020C043704704491422091D09685043103008587047000068020020F0B500200D4A451E0E
:402F40000346171F50600FE014260146714314680E1DA3510C461668083433511668083435511468401C635039688842ECD30020F0BD00006C020020F3B50026F64381B04B
:402F8000002841DB2349096888423DD8029900293AD0204F142204463F1D54432546396810354859401C2FD0FDF794FE3868415900292BD0211D009146580C210059714389
:402FC0000F46C1190C220298FDF7CFFF11480021001D0068761C00590C34C0190160416081600C48001D00680159B14200D100260849009A091D865008684159491E41512B
:40300000FDF764FE0020FEBD3046FEBDFDF75EFEFAE7000068020020FEB504460D4600201E49089E0860471E009001900290002C11D0486885420ED2002A0CD0002E0AD004
:40304000642E08D808460C3001681C2068430C18207A002801D03846FEBD0120226020721846FFF7DDFE6060401C13D06681A6810A4827610C3067610179A94200D2057118
:403080000021684601810A462846029B00F040F82846FEBD00202072DDE700007402002038B50124009400F039F838BDFEB50027164EFF433D4600240EE01C2031686043BE
:4030C0000818017A002906D04068FFF721FF002801D0254603E0641C3079A042EDDA681C12D01C2130684D434419FDF7F3FD69466068FFF741FF0546FDF7E8FD002DD9D1AB
:40310000216868468847D5E7FEBD00008002002038B50024009400F001F838BD1FB500220C49541E0A60002811DB496888420ED808491C220C31096850430818406801A90F
:40314000FFF7A0FE401C02D0002004B010BD2046FBE7000074020020F0B50021114A4D1E174611710C3F0B46BD6016E008461C2460431668041D35511468064623501468E7
:403180000836A3551468361DA353044616680A34335318301468491C255078688142E5D30020F0BD8002002038B500210091002811DB0F49097888420DDA0D4D04010C3543
:4031C00029680859002807D0201D0818694600F071F9002801D0002038BDFDF77BFD28680F34015D491E0155FDF770FD009838BD90020020F7B582B0002502986E1E0660E1
:403200002E48D21C024017462D4A2C4610460C380178106805E02301C358002B0FD0641CE4B28C42F7D3711C28D03401211D40180191039900F02CF900281FD101E0264643
:40324000F1E71F48016820460C300F521C480399026820460E30115419480399026820460F3011540398784300F0A0F8144900280968085102D00024009011E001251AE0FB
:403280000F48016801980818009900F02EF9002801D0012502E00098C0190090641CE4B203988442ECD3002D05D10298066004480179491C0171284605B0F0BDFCFF000042
:4032C0009C020020F8B50D4600216A468C461180002839DB23490978884235DA214B04010C3319680A59002A2ED020460C300B5A801C0E5C184670438018954224D38542D3
:4033000022D2002006E007465F43BF18AF4206D0401CC0B2B042F6D36046002814D0114E271DC8190C366A46294600F008F900280AD168460088012808D030682946C019DB
:4033400000F0D3F8002803D00120F8BD0020F8BDFDF7C0FC30680F34015D491C0155FDF7B5FCF3E790020020F8B50F46002400F033F8002817D10C4900220B460C334A6015
:403380000EE021011D680E466A501D680C36AA53B61C1D680F31AA551D68641C6A54E4B2BC42EED31A71F8BD90020020014610B5002000290CD0C91C064B8A0859689200BA
:4033C0005C888A18A24202D898685A60401810BD002010BD90020020F8B5064600200F4D009029700C0121466846FEF75FFE00280CD129460C3100980860301B001F84B2A8
:4034000021466846FEF752FE002801D0FF20F8BD6C800098A8600020F8BD000090020020F8B5002827DB19490978884223DA174C05010C342168485900281CD028460C3040
:40344000085A009028460E300E5C401C0E5420682F1DC01900F064F800280CD12068002445590EE0094829460C300068C01900F03CF8002801D00120F8BD00982D18641CC3
:40348000E4B2B442EED30020F8BD00009002002030B50D4604000BD0A800FFF787FF6060002805D000202570C0436080002030BD012030BD70B50D46040005D0002D03D03C
:4034C0000220205E002801DA012070BDFDF702FC0221615E60688900405828606088401E6080FDF7F3FB002070BD70B50D46040007D0002D05D002212078615E401E814251
:4035000001DB012070BDFDF7E5FB6088401C00B26080616880000D50FDF7D8FB002070BD10B5040009D0227800216068FDF726FD0020C0436080002010BD012010BDF0B53E
:4035400000231D46002802D00224045F0AE00120F0BD46689F00F6598E4201D1012503E05B1CDBB29C42F4DA15700020F0BD00000148007870470000A40200207CB5054687
:403580000024FEF71BFCA8796946087000A8062229460130FDF7E9FC0021684604F0B4F80C2804D0072804D01F2804D004E0022402E0042400E0272420467CBD10B500F022
:4035C000B7F8FFF757FAFFF75BFA10BD10B503240BF05CFF002810D10BF000FF00280CD104F0E8FD002808D100F064FA002804D104F0E4FA002800D10024204610BD70B507
:403600000025044600280ED0A07901280BD8FEF7D5FBA0790028204602D002F0D3FD03E002F088FD00E00125284670BD38B504460120002C20D0617801291DD800290BD085
:40364000FF25E535FEF7BAFB2846FFF715F9C0B22070072803D00EE0FF25CD35F2E70020694608706846FFF71FFA69460878012801D108202070002038BD70B50446012074
:40368000002C1FD06178012902D92278092A19D8002905D0FF25E5352078092803D004E0FF25CD35F8E707202070FEF787FB2078082808D00020FFF733FA21782846FFF784
:4036C000E1F8002070BD0120FFF72AFA0721F5E770B50D46040001D0002000E00548002802D0012101F0A6FF2946204602F080FA70BD00006008002038B505460020044681
:40370000009022466946284600F06CFE0098002801D00BF09DFEA878214602F0ADF8A878214602F09CF8641CE4B2052CE9D338BD38B5FFF79FF9042819D0052817D00628FE
:403740001AD0032842D007280AD100206946087002460120FFF7B8F8FFF78CF90128FBD138BDFDF705FBFFF785F90128F8D0FFF781F90128F5D138BD02F0E6F805E0FDF707
:40378000F7FAFFF777F9012803D0FFF773F90128F5D1A12424012046FFF76EF801220E4983079B0F0A70022BE5D149880029E2D0104301462046FFF765F82046FFF75CF8FF
:4037C000410849002046FFF75DF838BD02F0C0F80120FFF77FF938BDAA020020F8B50646002402F0F3FD0546304602F007FE00210346012632468A40174610462F40184093
:40380000002F03D0002801D1224394B2491CC9B20529EFD32046F8BD1CB50020694648706846FFF703FF01AA69460A20FFF74CF86946042008561CBD10B50C4601F076F9B9
:40384000002809D00179002906D0C1788078224602F07CFA002010BD022010BD01480078704700002C0800204030C07E002800D00120704700B500F001F800BD8821484318
:40388000064940186030417F491CC9B24177052901D300214177C8B2704700004008002013B501F043F904000BD001F096FC002807D0214601AA0A310620FFF705F8002029
:4038C0001CBD02201CBD000010B50C4601F02EF900280AD001F081FC002806D0224604490A20FEF7F1FF002010BD022010BD000015080020F3B581B007460146002602984D
:4039000002F05CFD0446002F01D0002500E0154D002D21D0284601F03FF9032C04D13946029802F075FD06463846029901F097FF032C06D0002C10D00121384601F01AFAB3
:4039400003E03146384602F017FF284601F058FE0221284601F06EFEFEBD3846029901F07EFFFEBD6008002070B50446002503F005FB002801D00C2070BD2078611C02F05F
:40398000DFFAFF2802D01F25284670BD02F02CFBFF2804D02178621C01F0D6FEF4E70725F2E710B503F0EAFA002801D00C2010BD02F09EFA002010BD70B50D46044610218E
:4039C0000BF086FC1021601806460BF081FC334610221946204603F0FDFA102130460BF077FC02202870204604F040F870BD70B504464078217802028006850FE07811436B
:403A0000A67809050002090D0643084601F08EF8002812D0022D10D0032D0ED0002E08D00179092909D0002907D0214600F0A1F870BD0089002103F04EFF20460BF008FD15
:403A400070BD0020704770B50446002503F096FA002801D00C2070BD2078611C02F070FAFF2802D002F0B2F900E01F25284670BD10B504F0A3F800F0F6F8002010BD10B52F
:403A8000044600786178E2780843A17811430843217908436179084305D003F061FA002803D00C2010BD122010BD204602F08AFB002010BD10B5044803F0CAFA02F090F9E1
:403AC00000F004F8002010BDFC070020F8B5114D00266E706E736E716E76AE76EE766E75AE70EE70AE712F46EE730120B03778723F207871FF20B87100F00AFA002420463B
:403B000001F032FB641C2406240EF8D03E72FE71AE73F8BD4008002070B505460E46084602F054FC0446304602F068FC0121A9400A46224001400A4301D0012070BD002072
:403B400070BD10B50446084602F058FC0121A140014201D0012010BD002010BD10B5FEF789FF032804D101F0F3FE0120FEF7B2FF10BD70B5044600790D4609281CD000284B
:403B80001AD020464030817E491C8176204601F037FDA078FFF76EFE064602462946204600F00CF8002806D1A0783146FFF790FD28460BF04DFC70BD0846FAE7F7B5054672
:403BC00048780C468006870FC8788978000282B0014368468180284601F00AFB060007D021462846049A00F091FB304605B0F0BD384600F039FC0746034601AA294620466E
:403C000000F0CAFA68468088231DC0B20090A878FF22049901F0A6FF684680883B46C2B2A878049902F04AFBDFE770B5002500242846FFF7D3FD060010D03046E040C0071A
:403C4000C00F07D02146284601F0FDFD21462846FFF750FE641CE4B2052CEED36D1C2D062D0EE4D070BD10B502F0BAF8FFF72EFF0BF056FC002010BDF8B5002400F081F8E5
:403C80000123012800D10124104F00203E4620360425082203E0002801D0002100E031460979002907D001290BD002290BD0114681402143CCB2401C0006000EEBD07C7023
:403CC000F8BD1C43F7E72C43F5E700004008002010B5FFF7D1FF10BD10B50B4681791943817103D08078114602F0ACFA10BD10B582798A43827102D1807802F0BBFA10BD23
:403D000070B5FF25D53502242846FEF7B5FD0C4A9178002901D0022906D1137852789A18282A01D9032402E0032900D101244105490DE00201432846FEF7A4FD70BD000049
:403D4000A602002010B500F022F8002807D0012805D0032801D0042801D0002010BD012010BD014610B50020C90701D000F009F810BD014610B50020C90701D000F001F89A
:403D800010BD10B52020FEF777FD000A10BD10B51820FEF771FD410501D5042010BD4007800F10BD38B5044640060CD5684601F0D5FD0220FFF78CFF072002F02DF9684682
:403DC000007801F03FF9200613D5FFF7E0FF01280FD1684601F0C2FD6846007800F09AFA072002F019F9012001F072FC0220FFF76FFF38BD10B5034A0178117002F01BF9F6
:403E0000002010BDA602002010B50446FFF7B9FF002801D00C2010BDA27B01211848002A827801D00A4301E05208520082706279012A0FD0C17849084900C1702079012813
:403E40000CD06188208802F005FF2080207904280BD00DE0C2780A43C270EFE7E01D02F099F90848808C208002E0E01D02F092F9054920798870204602F0ECF8002010BD42
:403E800040080020EC070020A602002038B50478FFF777FF844201D10C2038BD002C18D0072069460870FFF74DFF012807D10121684600F08DF8012801D0092038BD684681
:403EC000007802F0A9F8FFF71BFF02F0F0F8012010E0FFF737FF012806D1684601F03EFD6846007800F04AFA072002F095F802F0D5F80220FFF7ECFE002038BD10B5034ACE
:403F00000178517002F076F9002010BDA602002038B568460BF032FA002801D01F2038BD01210098C90201804180002505714571857107214173857302F08CF8009C20220C
:403F400000212046FDF71AF825702A460021601CFDF714F8204602F06EF8204602F04AF900980BF075FA042200210248FDF706F8002038BDA60200200346084800B5834244
:403F800009D8184600F0D2FD002804D00089984201D1012000BD002000BD0000FF0E0000074A9179491C8906890E917138220A4092014907090E114308430249084070479B
:403FC00040080020FF0E0000C006C00E70470000F8B507460E4600240D4803E0002C01D0002500E005462979002905D0641C2406240EF3D00020F8BD204601F0B5F82E7153
:404000002046FFF7CDFF28813C700120F8BD00006008002010B503F011F80222002100F003F801F085FE10BD10B5094B40074907000F090F185A595A40185043C00864213F
:40404000FCF7ECFE002800D1012080B210BD0000F01B0100F7B53D20405C88B016460C46002829D030786946087200252046FFF7FBFB012800D00125204603A9383001911F
:40408000009023460327A17E34332A46206A02F0F9FF02A8089900900B46019120463A4603A9243002F078FF02466846007A3070204601F045F810460BB0F0BDFFB587B019
:4040C0000C4605461078694608723D20005D1746002826D000262046FFF7C6FB012800D00126204603A93830019100902346A17E34333246206A02F0C5FF02A80090291D17
:40410000019120462B1D03A924300A9A02F044FF02006846007A388002D1204601F010F810460BB0F0BDF7B53C20405C88B015460C4600280CD0287869460872002806D040
:4041400000262046FFF790FB012803D003E01F200BB0F0BD0126204603A938300191009023460327E17E34333246E06902F08AFF02A8089900900B46019120463A4603A904
:40418000243002F03BFF02466846007A2870204600F0E0FF1046DBE7FFB505463C20405C87B016460C46002810D0084601F020F801280BD0308869460883002809D00027D1
:4041C0002046FFF751FB012805D005E000200BB0F0BD0220FBE70127204602A93830019100902346E17E34333A46E06902F04AFF06A80090291D019120462B1D02A92430EF
:404200000A9A02F0FBFE02466846008B30806846008BA870000AE870204600F09BFF1046D5E770B50D460446FFF71EFB01280AD0E87AA97A00020143A07801F049FC0128F3
:4042400008D0002070BD00222421204602F04CFC242070BD28214C200155204600F09AFB282070BD002801D0002000E003484030C07F012800D000207047000060080020EB
:404280000146002049070ED50021084B03E0002901D0002200E01A461279022A04D0491C0906090EF3D0704701207047600800200146002049070ED50021084B03E00029A7
:4042C00001D0002200E01A461279022A04D0491C0906090EF3D07047012070476008002010B5044680346068002803D00BF0C4F80020606010BD4030417070474030817078
:4043000070474030017070470171704792001018C166704770B53C2501F0F4F8040004D020460021433001F08DFB2946204600F0C0FB002C02D0A07801F076F870BD00009D
:4043400010B5002801D0002000E00348002802D0008903F007FB10BD6008002010B5002801D0002000E00448002804D00179072901D100F041F810BD6008002010B501F0B1
:40438000C1F8002802D0807801F04EF810BD00207047000070B50546008A00281ED010491122897A1140C90618D5294640314A8A098A521C4A4392B2D10800D1012154081D
:4043C00001E0621A94B2A042FBD9FFF7D1F8012804D1298AA878224601F058FC70BD0000EC07002000230B60052A04D292001018C26E0A60C366704738B504460020009039
:40440000A079002814D14020015D052901D00E290ED168460AF0C2FF002809D12046009902F04AFB03481021C28A2046FFF754FC38BD0000EC07002010B50B4604460146BF
:40444000184602F019F8002802D020460BF00AF810BD13B5044601AA11460620FEF734FA6846818861811CBD002800D10220704770470000F8B504462346401D5433009085
:404480009A1EA078911E01F078FA25464035A88A298A8000FCF7C2FC401E81B2688A884203D96982A07801F04AFF20460021433001F0C8FA8020FEF7DFF9E88102F0BEFD8E
:4044C000E989891C8AB26179FFF7AEFD01F030FC02F0B4FD2A8A6179FFF7A6FD074601F019FC688A00280BD0FF26F1363046FEF7C3F90321090201433046FEF7C3F902E0D0
:40450000002001F00AFFFF206130FEF7B5F96E8A002E0BD070431049FCF7E0FC0004000C01D0401C80B20D49488002E00B4800214180288A704381B2A07801F069FE283727
:40454000B9B2204602F08AFBE98AA07801F0B8FDA07801F0A7F9F8BD71020000AA0200207FB504468034616805460E46183108226846FCF7FAFC31462031082202A8FCF7F2
:40458000F4FC102168460AF0A3FE6068102108300AF09EFE60682B46083024331022694602F018FD7FBD10B504460821FFF79FFB10212046FFF79BFB207905281FD0062810
:4045C0001DD008281AD12189002003F043F9072020712046FFF748F9014620464030012913D00E21017000210176204600F028FF2046FFF775FE2046FFF7CCFE10BD20891B
:404600000122002103F00AF9E1E70521EAE70000FFB581B01F4604460821FFF768FB10212046FFF764FB2079082803D0092804D0042203E00422012501E0092200252046F2
:4046400000F0C2FD264600204036307022712046FFF746FE0398002D02D0012808D00BE001280AD120890022029903F0D7F804E02189029803F0EEF8012700203076012FE5
:4046800004D0204600F0DCFE05B0F0BD02983073204602F055FA054605480121C28A2046FFF71AFB002DEFD109202071ECE70000EC07002070B50C460546FFF7D5F80128FE
:4046C00009D108212846FFF712FB0023012221462846FFF79DFF70BD10B5044600F074FD2046FFF7FDFD00214034217010BD70B505461A24FFF7B8F8012809D108212846C5
:40470000FFF7F5FA0023012221462846FFF780FF70BD0000F8B50446002000900E4668460AF03CFE002801D00D20F8BD8420005908212030009D00F0F4F92046042138303C
:4047400000F0EFF9002E02D1204600F07BFD2946204602F041F90E480821C28A2046FFF7BBFA204600F0D3FE25464035002808D0204600F023F8002801D009202870002063
:40478000F8BD08202870204600F03AFFF7E70000EC070020014610B540310A460978082906D0092907D00A2901D100F091F810BD0B20107010BD00F001F810BD70B50446BE
:4047C000007925464035052805D0062803D008280FD00C2070BD03220621204602F084F90D480821C28A2046FFF776FA1120287010E006202873204602F0A2F90646AA8A51
:404800000A20424301212046FFF766FA002E01D109202071002070BDEC07002038B504460020009068460AF0B9FD002801D00D2038BD2046009D00F08BF9082020712046DB
:4048400000F000FD2946204602F0F8F800213D2001550F2040210855204600F0D1FE002038BD00B5024600F0AFFC10214032117000BD10B50446FEF7F7FF012809D04020C4
:40488000005D112805D100231A4606212046FFF7BFFE10BD10B5FFF786FE10BD38B504460021684600910AF079FD00280CD12046009902F03AF905480821C28A2046FFF7A2
:4048C0000BFA0D204034207038BD0000EC07002038B504460021684600910AF05FFD002801D00D2038BD2046009902F013F905480821C28A2046FFF7EFF90C20403420703F
:40490000002038BDEC07002000787047F8B50025002801D0002400E01A4C002C28D0204600F05BFC002823D0207903281CD005281CD026464036B18AA07801F077FCB07875
:40494000012815D10021204601F0B3FD274680373868002802D00AF08FFD3D600020B0702079072805D007E0042000E006202071F8BD2046FFF70EFD0221204600F05AFEB3
:40498000F8BD00006008002010B54C22115400F046F810BD10B50446FF21FFF7A8F909202071A07801F072FC10BD000038B5FF216A461180002801D0002400E0064C002C9A
:4049C00008D011460620FDF77FFF684601882046FFF73FFD38BD00006008002010B504468079002809D022214C200155FF212046FFF77DF9204600F012F810BD10B5037936
:404A000002464032002B03D01173092B02D003E0002100E02221117300F001F810BDFEB504460089002701902781207926464036002817D0012815D002280AD112E002AAB2
:404A40006946204601F006FD002807D100980AF009FD204601F026FD0028F0D02046FEF74BFEB776254680352868002802D00AF003FD2F606868002802D00AF0FDFC6F60A3
:404A8000317B002902D0019800F044F8A078002100F01CFF2046FFF7BDFAA07801F002F8A07800F0C1FC0B20FFF712F900F000FCFEBD70B50E46054602F0BCFA044606706C
:404AC0002846FEF7D1FE014601204140204661700C3000F0A0FF002D10D02889608028464030C1782171002E10D169796171018AE180418A2181808A608107E01820FDF738
:404B0000BBFEC005C00F207100206080204602F04AFE70BD0A4610B50146002002F03AFF10BD10B50AF0B0F910BD000000B50146FFF74AFA002801D0002000E0034800287F
:404B400002D002898A4200D0002000BD6008002038B5044680346068002806D168460AF02DFC002801D100986060606838BD000010B5014600F03CFB0128887802D0FEF722
:404B80007DFE10BD88214843024940186030007F10BD00004008002070B5054604464035A87F012811D1A1788820084A484380186030067F3046FEF7AFFF002805D10220AD
:404BC000A877A078314601F021F870BD4008002010B50E4CE079002816D0FFF726F80C48827FC17F808B00F06BFB01280CD10020E07100F0BCFE0446AC20FDF73DFE010B66
:404C000002D0204600F00EFA10BD0000F00800204008002070477047490510B5490F0B00FDF7DEF9060704080C0C0F073E21FFF7ABFE10BD0821FFF7E1FE10BDFFF7EFFE88
:404C400010BDFFF7CBFE10BDF8B507460025002D01D0002600E0204E00F064FE3046403044890021418100F067FE304600F0B5FA01282BD1A00702D52846FFF747FEE006C6
:404C800002D52846FFF792FEA00601D5FEF7CDFF600601D500F0C8FA200602D5284600F01DF8600702D5284600F0FAF9380402D52846FFF753FB780402D52846FFF740FB48
:404CC000E00703D021463046FFF7A6FF6D1C2D062D0EBCD0F8BD000060080020F8B5002801D0002400E0204C002C39D025464035A878012834D1E98AA07801F0E1F920468D
:404D0000FEF7B2FD01282BD002F098F92A8A6179FFF78AF9064600F0FDFF2836B1B2204601F09CFFE98AA07801F0CAF9FF206130FDF7A2FD6E8A0D4F0146002E11D0304694
:404D400048430B49FCF7CAF80004000C01D0401C80B27880288A704381B2A07801F058FAF8BD0020F5E7000060080020AA0200207102000070B50D46124A010001D0002403
:404D800001E014462034002C1BD0204600F030FA01280AD18820484380186030007FFEF7BBFE002801D101F055FE20464030817E491B8176204600F023FC2089294602F054
:404DC0008AFD70BD4008002070B503460088FFF7ADFE040013D000F000FA00280FD02079092819D02546997840352973204601F0A7FE0646A878012803D0AA8A02E002204C
:404E000070BDEA880A20424301212046FEF764FF002E01D109202071002070BD0EB5002217216B460292198100905A810120029B00990AF093FB0EBDF8B5184E0024F0798C
:404E4000002820D10025AC20FDF716FD000B21E0204600F007FEFDF70FFD07462A46214600F02EFA01280FD00D48012187838577C477F171002D01D0002000E020300028E6
:404E800001D000F0BDFBF8BDAC20FDF7F5FC000B641CE4B20028DBD1F8BD0000F00800204008002010B50088FFF740FE002809D0014640310C460978082905D00B2903D0CF
:404EC0000C2010BD022010BDFFF778FC002801D009202070002010BD70B503460088FFF725FE040008D0254640352878082805D00B2803D00C2070BD022070BD84200059A6
:404F000010220830991CFCF730F82046FFF728FB2878082804D02046FFF7DAFC002801D00A202870204600F06BFB002070BD000010B50C46002121700088FFF7F7FD0300E0
:404F40000BD000F04AF9002807D009481121807A0840C00603D4112010BD022010BD022020701A8A1889002102F030FD002010BDEC070020F8B50F46002100910088FFF76C
:404F8000D5FD040012D000F028F900280ED0E079410641D4617E02264A07002A08DB8907402500291ADA2843E07135E00220F8BD02F040F80021017021894180A1898180FC
:404FC000217E4170E189C1803E7005460178134802F062FA284602F09DFC1DE0204600F00DF9012806D068460AF0D8F9002803D00720F8BD2A20F8BDE07900992843E0714D
:40500000204601F0C7FD607E0421304360760448C28A2046FEF760FE0020F8BD1D040000EC0700203EB500220F236C460292238100910190628169460EC900200AF08EFA51
:405040003EBD000070B5054600F05CFA040021D003202071254600264035EE76E6702046FFF708FA01F01AF80920FEF731FEA07800F006FD0121204600F0DCFA2E706E7093
:40508000AE7000212046FFF714FD0449887B401C887370BD284601F0F9F870BD4008002010B5002801D0002400E00A4C002C0FD020464030417802290AD10021417020469B
:4050C000FEF7D2FB002803D10221204600F0B2FA10BD00006008002070B503460D460088FFF724FD04000BD000F077F8002807D012481121807A0840C00603D4112070BD12
:40510000022070BD20464030418A008A491C41430804C10C5888884201D2122070BD20822079072802D12046FFF734F9022028702089002102F072FC002070BDEC0700204D
:40514000016A491C016204D1817E491C4906490E81767047C169491CC16104D1C17E491C4906490EC176704770B500250646002801D0002400E0114C002C1CD088220021DE
:405180002046FBF7FBFEA67000202646207140363070204600F018F8204601F07FF9084820820848B577807A1121084000D001202075012070BD002070BD00006008002095
:4051C000B80B0000EC070020002101628176C161C17620300177417770470079002805D0012803D0022801D001207047002070474030807F002800D001207047403000788B
:40520000002807D0012805D0052803D00E2801D0012070470020704710B5807801F0EEF8002800D0012010BD10B500F0A0FB0446AC20FDF721FB010B02D02046FFF7F2FEA1
:4052400010BD000070B5054604464035A87F002823D1FF206075A0788821144A484380186030417F8823491CC9B24177A078584380186030052901D300214177A0788821AF
:40528000484380186030467F0677A1783046FEF743FC002802D00120A87770BD0220A877A078314600F0B2FC70BD0000400800200020401C0006000EFBD00020704700009A
:4052C000F0B515468207920F85B0C004C00E02926A469080002D01D0002400E0514C002C29D0084600F0BEFB03906846808800280BD00298012845D0022843D003280CD046
:405300003D20005D012872D086E00398FDF7B4FA01462046FFF79DF87EE00020029002A80AF01CF8002807D03D20005D012876D12046FFF705FF72E06846029E83883246F9
:4053400000210398FDF70EFA0398FDF795FA01462046FFF77EF8284600F0B0FA01AA21463046FEF777FE002806D030460AF066F83D204C21085528E0F5773146204601F00F
:40538000DBF94CE0002000902789684609F0D6FF002802D0002005B0F0BD6846009E8388321D00210398FDF7DDF90398FDF764FA01462046FFF74DF8284600F07FFA254652
:4053C0004035287E00280CD103E02046FFF7E2FA25E001AA21463046029BFEF76FFE002806D030460AF020F83D202873EDE710E00298FFF73DF8390A0001014337707170CF
:4054000068468088B070000AF0703046FFF706FD05E02046FFF794FE284600F04FFA0120B9E700006008002010B5044A917B002901D0491E9173FFF797FE10BD40080020B6
:40544000F8B5074606464037B87F00283DD0B0788821009048431F4945186035287F0099FEF76FFB012831D0287F401CC4B2052C00D300240020B877FF276F772F77A87733
:4054800002460146009800F041FD717DFF2903D0304600F0C4FF777501F0DCFA00252F462246694630460097FEF79CFF0099002902D03046FEF75DFB641CE4B2052C00D313
:4054C00000246D1CEDB2052DEAD3F8BD0320B877F8BD00004008002010B502460021084B03E0002901D0002000E018460479944204D0491C0906090EF3D0002010BD00002F
:405500006008002000B50120FFF7E6FF00BD10B5044601F08FFD2189018080346168416061682831816002F0AFF910BDF7B50646087982B00C46092807D0A078F077084664
:40554000FFF756FE012806D010E0304609F08AFF022005B0F0BDA1788820284A484380186030007FFEF7D8FA012810D0A078FEF779FE01280BD037780121304601F017FA70
:4055800025462035062F36D00B2F0FD107E06846027C21463046FEF74FFF0D20D9E72046FEF762F9012801D1002028772046FFF7DFFA054604AA21463046FEF7B4FD012074
:4055C0005F2108556946087C0090A07833463A46294600F0C7FA69460A7CA0780323294600F06CFEA0782946FEF772F8304609F039FF0020ADE70120D7E700004008002016
:4056000010B502464032937F0021002B03D1927E002A00D00121064AD279002A00D000210279092A00D10121807800F063FE10BDF008002070B50C460646FEF715F900281A
:4056400014D1012C0ED935464035A87800280DD1687802280AD03079092807D03046FFF7DBFD0446204600F080FD70BD0124F9E770B50D4601280BD0082808D1A82411464B
:40568000B020FDF7FFF829462046FDF7FBF870BD2020FAE710B501460820FDF7F3F810BD10B50446FF20F130012C01D1FF20D530002200F06AFE1020FDF7DEF80349A04330
:4056C000088001461020FDF7DDF810BDAE02002010B504461020FDF7CFF80449A043088001461020FDF7CEF810BD0000AE02002010B50446012802D0082C07D102E0FF20AE
:40570000D53001E0FF20F13000F034FE1020FDF7B3F804492043088001461020FDF7B2F810BD0000AE02002010B504461020FDF7A3F804492043088001461020FDF7A2F85D
:4057400010BD0000AE020020F8B507460120B84085B214460E46012229467C2000F015FE32462946782000F010FE6078217800020143E078A57800020543607926790002F6
:4057800006430C2047430D2080013C182046FDF779F8241D29462046FDF774F8201D3146FDF770F8F8BD8B00034310B5D10191201943C000FDF766F810BD000070B505461E
:4057C0000C46407829780002014341200001FDF759F8E878A978000201430A48FDF752F860782178000201438320C000FDF74AF8E078A1780002014302480830FDF742F803
:4058000070BD00001404000070B50D46044681B201208002FDF736F8210C0448FDF732F881202946C000FDF72DF870BD0404000070B5054600242846FDF71EF8641CA4B2D2
:40584000102CF8D370BD10B50C460146B020FDF719F8FF2021462D30FDF714F810BD10B50C460146B020FDF70DF8204600F0B8FD0021FDF707F810BD70B50C46054600F04C
:4058800005F821462846FFF7DEFF70BD10B50C460146B020FCF7F6FFFF2021462930FCF7F1FF10BD10B50146B020FCF7EBFFFF20002220211D3000F068FD10BD010210B5FF
:4058C0004D310020FCF7DEFF10BD000010B504020029014608D0B020FCF7D4FF214675310020FCF7CFFF10BDB020FCF7CBFF512000214001FCF7C6FF00210348FCF7C2FFD1
:4059000021467631ECE70000240A000010B554210020FCF7B7FF10BD10B553210020FCF7B1FF10BD10B5034908884880FFF7D0FE10BD0000AE02002010B502484088FFF728
:40594000F3FE10BDAE02002010B5FDF77DF810BD10B552210020FCF795FF10BD10B504461820FCF789FF8004400F207010BD10B5B020FCF781FFC0B210BDF8B50E46014671
:405980001C461546B020FCF77DFFFF20E930FCF773FF0746FF200130FCF76EFF3080FF200930FCF769FF2880FF200530FCF764FF208079070698490F0170F8BD10B5C820B3
:4059C000FCF75AFF10BD10B50C46002812D05820FCF752FF2070000A60705C20FCF74CFFA070000AE0706020FCF746FF2071000A607110BDFF20C130FCF73EFF2070000A58
:405A00006070FF20C530FCF737FFA070000AE070FF20C930E8E770B504466820FCF72CFF06466C20FCF728FF05467020FCF724FF2670310A6170A570290AE1702071000A3A
:405A4000607170BD10B50446012905D01820FCF713FFC00B207010BD4820FCF70DFF8007C00FF7E70120C002704710B50C460146B020FCF707FF0321A0014902401810BD24
:405A80008821074B414310B5C918FF2260314A770A7700228A77114600F038FA10BD00004008002088225043074A10B58018FF21603041770177002181770448418EFF20DE
:405AC0001D3000F057FC10BD40080020EC07002010B50C460146B020FCF7D4FEFF202530FCF7CAFE0222214600F002F810BD000010B50023884201D8081A03E00024E4438F
:405B0000201A4018044980B2884201D8824200D90123184610BD0000FF7F0000F8B503465078167800020643D07895780002054350791779000288240743002900D098240B
:405B40001946B020FCF79EFE31462046FCF79AFE201D2946FCF796FE204608303946FCF791FEF8BDFFB581B014460D4606460A9FFFF77BFF3B460021049AFCF763FE0248A3
:405B80004019845505B0F0BDB202002070B506460D4611242520A40108214001FCF772FE2B46324600212046FCF74CFE70BD70B5212405466401FFF7AFFE10232A46002172
:405BC0002046FCF73FFE70BD10B5044640782178000201438F20C000FCF754FEE078A178000201430148FCF74DFE10BD7C04000010B50C460146B020FCF744FE8020214693
:405C00000143FF202930FCF73DFE10BD70B50D460146B020FCF736FEFF241D342046FCF72BFE01090901FF202943013001432046FCF728FE70BDF8B500242646012807D004
:405C4000032802D0052808D105E002240A2604E004240C2601E004240D26492701463F013846FCF70FFE25204001FCF705FEC5B228462042F7D0252031464001FCF702FE7D
:405C800000213846FCF7FEFD2846F8BD70B50D46044601461646B020FCF7F4FD512029464001FCF7EFFD31460648FCF7EBFD032189030820FFF71CFD210275310020FCF7B8
:405CC000E1FD70BD240A000070B50D4604460146B020FCF7D7FDFF2029461930FCF7D2FD21024B310020FCF7CDFD70BD70B5491E8CB205460146B020FCF7C4FDFF20214623
:405D00001930FCF7BFFD29024C310020FCF7BAFD70BD0000054910B5884200D908460146FF206130FCF7AEFD10BD0000FF0F0000054910B5884200D908460146FF20653059
:405D4000FCF7A0FD10BD0000FF0F000070B588251446002900D098250146B020FCF792FD2846FCF789FD2070000A6070281DFCF783FDA070000AE07028460830FCF77CFDB8
:405D80002071000A607170BD10B51446024611200B4680010021FCF741FD012C01D1FFF7B5FD10BD10B504460920C001FCF764FD2070000A60700448FCF75EFDA070000AAF
:405DC000E070FFF7A3FD10BD840400000121814010B589B200227C2000F0D7FA10BD000070B5FF210120FFF75BFCFF210820FFF757FC3020FFF76CFC80210020FCF742FD54
:405E0000002211460320FCF75FFD374DFF20A98DD530FCF737FD0024FF26F1362146B020FCF730FD298F3046FCF72CFD2046FFF739FE641C2406240EF0D0FF20A98FF930B2
:405E4000FCF720FD28481030044600F073F9204600F0B8F900F04CF8234CB82040346188FCF710FDA188BC20FCF70CFDE188C420FCF708FDFF20698EE130FCF703FDA120BC
:405E800000210001FCF7FEFC3920FFF74DFCFFF743FD93200721C000FCF7F4FCFFF736FDE020FFF7C5FCE820FFF7C2FCF020FFF7BFFC0020FEF7AEF8618A0C48FCF7E2FC5F
:405EC0000A482821001DFCF7DDFCFF210131AC20FCF7D8FC832000218000FCF7D3FC5B210020FCF7CFFC70BDEC070020140A000010B500217C20FCF7C5FC00217820FCF799
:405F0000C1FC74210020FCF7BDFC10BD70B50D4601461446B020FCF7B5FCFF261D363046FCF7AAFC01090901FF20294301308143002C01D1102041403046FCF7A3FC70BDEA
:405F4000F3B589B0FF2001900D208001009048780D7800020543C8788E780002064348790979000201437C200791FCF785FC06907820FCF781FC059074210020FCF782FCA8
:405F800018480024049026E00120A04087B20098FCF772FC03900098FCF76EFC02900098FCF76AFC039A29465140029A72401143079A424011430BD10698074208D0059897
:405FC000E040C1070998C90F814201D1019405E0641C0498E4B20078A042D5D801980BB0F0BD00002C08002070B5FF257C20FCF743FC0849002401230A7805E01946A140CC
:40600000014205D0641CE4B2A242F7D8284670BD2546FBE72C08002010B504461820FCF72BFC0721C90288436107890C01431820FCF728FC10BD10B50446E020FFF7F8FBCF
:4060400020782246401CC3B20021E020FCF7A6FB10BD000010B5044641790079042817D040000843A17B032901D8C9000843617B4A010243A079010207201143C0020143AF
:406080001820FCF7FFFB21881C20FCF7FBFB10BD08460149E5E700000204000010B50120FFF716FB41210020FCF7ECFB10BD10B50120FFF739FB40210020FCF7E3FB10BD71
:4060C00010B50C460146B020FCF7DCFBFF2021460D30FCF7D7FB10BD70B50C4601461E461546B020FCF7CEFBE92021468000FCF7C9FB75202946C000FCF7C4FBEB203146AB
:406100008000FCF7BFFB6C433B20A1B20001FCF7B9FB70BD70B50C4601461546B020FCF7B1FB21468420FCF7ADFB29468020FCF7A9FB70BD10B50446407821780002014359
:40614000FF20C130FCF79EFBE078A17800020143FF20C530FCF796FB6079217900020143FF20C930FCF78EFB10BD70B5A124054624012046FCF780FB012D07D04108490055
:40618000814202D02046FCF77DFB70BD014601221143F5E710B5044640782178000201436820FCF76FFBE078A178000201436C20FCF768FB60792179000201437020FCF752
:4061C00061FB10BD10B5044640782178000201435820FCF757FBE078A178000201435C20FCF750FB60792179000201436020FCF749FB10BD10B50446E820FFF719FB2078AC
:406200002246401CC3B20021E820FCF7C7FA10BD10B50C460146B020FCF734FB21460248FCF730FB10BD00001C0A000010B50C460146B020FCF726FBFF2021460530FCF779
:4062400021FB10BD70B5054688000521FAF7E6FD84B22946B020FCF715FB21460448FCF711FB290272310020FCF70CFB70BD0000040A000010B504460146B020FCF702FBE0
:40628000210273310020FCF7FDFA10BD10B504460146B020FCF7F6FA210270310020FCF7F1FA10BD10B504460146B020FCF7EAFA210271310020FCF7E5FA10BDF8B505462F
:4062C0001E4614460F46084600F08AF800902802A1000843304304462946B020FCF7D2FA21460098FCF7CEFA0148C0194655F8BDB702002070B50D460146B020FCF7C2FA27
:40630000FF241D342046FCF7B7FA40218843A90101432046FCF7B6FA70BD70B5A124054624012046FCF7A8FA0222002D01D0104300E0904301462046FCF7A4FA70BD70B582
:406340000D460146B020FCF79DFAFF2029460930FCF798FAA12424012046FCF78DFA0222002D01D0104300E0904301462046FCF789FA70BD70B50C460546FCF77DFA20430C
:4063800001462846FCF77EFA70BDF8B516460D460746FCF771FA014600202C0003D104E06408401C80B2E207FAD08640A9430E43B1B23846FCF766FAF8BD0000024A101831
:4063C000405C8007800F7047B702002010B50146B020FCF757FAFF202D30FCF74DFA10BD8000FF30413070470246FF20052902D201484018805C7047B202002010B5014664
:40640000B020FCF73FFAFF202930FCF735FA10BD0A4600B501461046FFF7E6FF00BD38B50C46054600216846009108F0B7FF002804D1009928464C7000F09EFB38BD10B524
:40644000044680780021FFF73BFE01212046FFF7F1F810BD436E002B0CD00B60014660318B781370826E4266CA788A700021816608467047FF20704710B50346446E6033CB
:40648000002C04D0846E002C04D0FF2010BD41669A7001E08166DA70002010BD0021416681667047406E002801D000207047FF20704770B50446C0790D46810610D5DF212D
:4064C0000840E07100F0B6FD0570218941804034218A8180618AC180A18A018101F036F970BD000010B50446FEF782FE01280AD1A1788820054A484380186030007FFDF77C
:406500000BFB012801D000F0A5FA10BD4008002070B50D460446FDF7A7F901281CD02079042801D0072816D1E879AE7900020643A0783146FFF7CCFA012813D03246691C59
:40654000204600F035FA02212046FDF7D4FE01212046FFF76FF870BD01222421204600F0C3FA70BD28214C2001552046FEF712FA70BD70B50D460646FDF753FE002847D1A5
:4065800020213046FDF7B3FB3446687840346073E87820220002E081A9780843E0816879010228790843218A814203D0F1791143F1712082E8790102A8790843618A8142BE
:4065C00003D0F1791143F1716082687A0102287A0843A18AE180814203D0F1791143F171A082A08A218A8000FAF718FC401E618A80B2814200D9608201213046FDF77EFE35
:40660000E87AA97A000201430022304600F0DCFA70BD0000F8B50C460546FDF725F9012849D0294EB07AC00709D02846403000900078002805D0102805D01F212EE01A21AC
:406640002CE0002700E001272846FEF781FA002823D02E4680360822611C7068FAF785FC7068617A20300172A17A417270682146183008220B31FAF778FC2146284604223A
:4066800013313430FAF771FC39462846FEF742F8002810D1002F0FD012E007210322284600F022FAF28A08212846FDF715FB11212846FDF726FEF8BD06212846FDF724FEB9
:4066C000009801210176F8BDEC07002010B5FEF761F810BD38B504460020009020790D46042801D007281BD12046FDF7BDF8012817D0684608F052FE002811D10C486A7881
:40670000807A00991040112210402075607E082210436076204600F079F92046FDF737FE38BD08222421204600F0DEF938BD0000EC0700207047000070B506460D46084674
:40674000FEF7E2F804463046FEF747FD00280CD0142C04D32946304600F0C7F805E00549A0000A58294630469047284608F066FE70BD0000001C010070B50D4600210028DC
:4067800001D0002400E00C4C002C14D020464030C177807F032802D12046FEF751FE2046FFF7A0FE142D04D20449A800095820468847FEF77DFD70BD60080020501C0100BA
:4067C00010B5014640310C4609780E2903D1FEF725F80120207610BD10B54021095C0F2901D1FEF73EF810BD4021095C0F2902D1002120304177704738B5044600220E48BB
:4068000000920D46807A11210840C0060ED52046FEF7F4FC012809D0684608F0BFFD002803D12046009900F053F938BD2946204600F05BF838BD0000EC07002010B5102165
:40684000FDF755FA10BD10B54978FDF733FF10BD10B5FEF70EF810BD012120304177704710B54021095C0C2901D1FEF717F810BD10B54021095C0D2901D1FEF70BF810BD66
:4068800070B5044600790D46052803D0062801D0082802D12046FDF71FFF68784C21085509212046FDF730FD2046FFF7C8FD2046FCF7DAFF0128A07805D0FFF7E7FC204620
:4068C000FEF79EFE70BDFFF7EDFCF8E710B50446FF21FDF70CFA16214C200155A078FFF7D5FC2046FEF78CFE10BD70B50C460546FEF77EFC002802D02078687570BD217803
:406900002846FFF78CFD70BD70B5054648780C46032802D12846FDF7EAFE6078122803D110212846FDF7E3F970BD704738B5044600200D46009004212046FDF7D8F96878D0
:406940002076E8780002A081A9780843A08168790002E08129790843E081607E04210843607680070CD4684608F018FD00281CD12046009900F00EF9607E0221084360766C
:40698000E079410611D5BF210840E07100F052FB00210090017021894180A1898180217E4170E189C18000F0B5FF38BD7047704770B50446C07815460A4600280AD000206D
:4069C000E070C1B2A078FFF7A9F8A0782946FFF77BF970BD0120F3E770B50546042008700C468420415908222031601CFAF7BDFA29462046042238310930FAF7B6FA0D2264
:406A000029462046FEF792FD002070BD70B5054609200C46087008220021601CFAF7AEFA287D607004480922C07AA07029462046FEF77CFD002070BDEC0700200B4610B5FE
:406A400001460B20187001221846FEF76FFD002010BD0000FEB50024164F03E0002C01D0002500E03D462846FFF71CFD00281BD15F20405D002817D16A4601A92846FFF72E
:406A8000E9FC002810D1019869460A7806782946FEF74CFD022E07D1A8780121FFF72AFC09212846FDF730FC641C2406240ED5D0FEBD00006008002010B50B46122119703F
:406AC0008178D977014601221846FEF72FFD10BD10B50B46132119708178D977014601221846FEF723FD10BD38B50546002000900C46684608F052FC002801D0072038BD8E
:406B000000980D210170447002222946FEF70EFD002038BD0B4610B501460520187001221846FEF703FD002010BD0B4610B501460620187001221846FEF7F8FC002010BDF3
:406B400038B5054600200090684608F027FC002801D01F2038BD009C022020704C20405D6070A878E0772846FFF769FC022229462046FEF7DBFC38BD10B50B46072119704F
:406B80008178D977014602221846FEF7CFFC002010BD000010B50B460A49044608880C221A704A795A709870000AD870C8881871000A5871062221461846FEF7B7FC0020D3
:406BC00010BD0000EC070020F8B50446403417460E460546E289617B8078FFF79BFA002F0DD100F02BFAE2896979FDF71DFAFFF79FF8608A002800D00120FFF78EFBE38890
:406C0000A08A984200D90346628A218AA878FFF763FAA08A218AC000FAF700F981B2ED208000FBF72FFEE089E188C0080A30081881B21920C001814200D90146A878FFF7AC
:406C4000F5FAA8783146FFF751F801212846FEF7F1FCF8BD00B500F01FF800BD10B50A4604460B491046FAF7D9F84034C01C218A80B2814200D208464900081A81B20548E9
:406C8000E182C089002802D0884200D2E08210BD710200002C08002040184008704770B505460C46000702D5A0B2FDF7CDFFE80702D0200EFDF776F870BD70B5054650C88D
:406CC000FCF736FDFBF758FC2889C01F0300FBF787F90C07130B171A1D0B0B200B100C0BA0B23146FFF7DBFF70BD204600F040FB70BDFDF76DFF70BD2046FCF778FE70BD2F
:406D0000FCF793FF70BDFDF785FF70BDFDF783FF70BDE0B2FEF790F870BD0000F3B5002483B0064627460094019408200294FBF7A3FD05460640400713D55020FBF79CFD31
:406D4000C0B20090700707D5009CA00803D1FBF779FC012800D10127002204200099FEF787FC28074ED5A820FBF786FD0146644842890A434281002208200091FEF778FC25
:406D8000300739D50098044340062CD5FF200930FBF772FDFF201D30FBF76EFD8006C00F0190FF200930FBF767FD00281BD00198002818D1534801214170FF20F130FBF7F5
:406DC0005BFD0321090288430146FF20F130FBF759FDA1200001FBF74FFD02210143A1200001FBF74FFD00981021884303D1FBF729FC012800D101270098C00602D5022013
:406E0000FBF778FEA8070CD53820FBF735FDC1B2B00702D508040443012700220220FEF727FCE8071DD02020FBF726FDC0B20090F0070BD000980221000604430098884396
:406E400003D1FBF7FFFB012800D101270098800702D50220FBF74EFE002201200099FEF707FCE80605D50120FBF734FE1020FEF711FCA80628D5FEF7A1FD23490880012074
:406E8000FBF728FE214900200870FF200930FBF7F3FC0090FF201D30FBF7EEFC80060099C00F00290DD000280BD116494870A1200001FBF7E1FC02210143A1200001FBF7EC
:406EC000E1FC2020FEF7E6FB680602D54020FEF7E1FB0720694608810020009601944881002F07D069460EC90498002804D0002008F010FB05B0F0BD002008F02FFBF9E7EB
:406F0000A0080020AA020020BC020020A5020020F0B587B0054605A81E461746019100900C9C04AB06AA02A903A800F0C6F82846FEF73DFE21463046FEF728FE6846017A97
:406F40000398FEF761FC05A904A8FEF737FC6846027E21463846FEF726FC07B0F0BD000070B50548C4782046FCF7FBFE05462046FDF786F9284370BD4008002070B505487E
:406F800084782046FCF7F5FE05462046FDF790F9284370BD40080020F8B5069E1F463478231FDDB23B460095FFF7B2FF3819001FFEF70AFE0520FEF73EFE044601222946CC
:406FC0000798FEF7E1FE3570E00701D00020F8BD1F20F8BD70B51C4615460E46FEF7E7FD29463046FEF7D2FD0320FEF724FE012229462046FEF7C8FE1F2070BDF8B5069D97
:40700000079E2C780094FFF783FF0120FEF713FE0746002221463046FEF7B6FE3019FEF7C1FE241D2C70F80701D00020F8BD1F20F8BD000000487047FC08002008B56A46DC
:4070400000210B20FBF740FC6846007808BD000010B50B4C094923460833A160002142189278002A00D05A54491CC9B20429F6D3FF21A0689A314843A06010BD0403020140
:407080004008002070B5059C049D2070060A6670060CA670000EE0704806D101400E0843207104221946601DF9F75FFF2046042229460930F9F759FF70BDF8B5079C0E461E
:4070C000E178069D09020160A77839430902016067783943090201602778394301602079611D4006400E30702079C009107004221846F9F73AFF2146042209312846F9F7DF
:4071000034FFF8BD10B5FEF759FC084A916848408108C3084409414063405940C30F59404008C9070843906010BD00004008002010B5012200F016F810BD000010B505486F
:4071400002780121002A017002D10120FBF7DCF8002010BDC002002010B5002200F002F810BD0000F8B5204D0F4629781646012904D02978022901D01120F8BD0C2148430C
:407180001A494418E078A178884201D31220F8BDF9F7A0FD62780C2361685A4351188CCF8CC1E178601C491CE1706178491CC9B20170A278914201D1002101706868401CDB
:4071C00068602878012803D0F9F780FD0020F8BD02202870F9F77AFD002E03D00020FBF793F8F3E70120FAE7C00200207C0A002010B51148002101704160C0220F48F9F74C
:40720000BDFE0E4890220021C030F9F7B7FE182200210B48F9F7B2FE0948102181700C21817306494160C03101610649816006494161FBF751F810BDC00200202C09002050
