:4000000000400020110000000D0300000D03000008B500F07DF9C04638B51222224B1A6000F0B4FD214800F0F3FC012000F0CEFD302000F0FDFC1E4A1E4B1A601E4C8025A6
:40004000ED0525601D4B196802220A431A601C4A1C4B1A601C4B1A6808218A431A60FA20C00000F05DFD194800F050FD184A194B1A60194A194B1A6080221206184B1A60BB
:400080008022D202174B1A604023174A1360174A1360174A13600820164900F00FFD082000F000FD256038BD30001040001BB7000600008004010B400C020B4078002E4096
:4000C0002D3E00007C002E406CF02E40DC050000007FBB000003014040FF00800000014008010B4000010B4024010140200101401C010140E90C000038B572B600222D4B18
:400100001A6000242C4D0CE063001B195B00EB1899881A8858880004104300F075F90134E4B2012CF0D92449081C0C30143100F03FF9EE221206214B1A60C0229204204B83
:400140001A60CC2292051F4B1A6099231B041E4A13601E4A1360802149051D4A11601D4A1360C02212061C4B1A601C4B197802220A431A701A4A11783C2081431420014317
:400180001170197816220A431A70D8231B04154A13604021144A1160C0214903134A1160C021134A1160134A1360FFF735FF00F01BF938BD6CF02E40000701000000024051
:4001C000000202400003024000500F4020500F4028500F4030500F4038500F4000700F4001700F40080004400002044008020440000304400803044010B5064C2378002BD9
:4002000007D1054B002B02D0044800E000BF0123237010BDC0030020000000009006010008B5084B002B03D00748084900E000BF07480368002B03D0064B002B00D0984780
:4002400008BDC0460000000090060100C4030020C80000200000000008B5012801D0282802D1002000F02AF908BDC04608B562B6074800F0E9F800F0B9FB00F0EBFD00F014
:400280005DFE044800F096F901F040F8FCE7C04659020000E902000010B501280ED0002802D0022814D01EE0002000F04BFB002000F07CFD002000F0EDFD14E0FA2000F017
:4002C00041FBFA2000F072FDFA2000F0E3FD0AE0FA246400201C00F035FB201C00F066FD201C00F0D7FD10BD10B582B0A823FF33984209D16C46073400200121221C00F036
:40030000A5F92078FFF7C8FF02B010BDFEE7C046F8B50F4F0F4E002412E031687368B568221C02E001C901C30432AA42FAD1F168221C01E010C304328A42FBD11036013F17
:40034000002FEAD100F098FFFFF790FFFEE7C04601000000D409010038B5104B1A6801218A431A6000230E4C0E4D0F4808E0032B02D89A00515900E0211C9A0011500133DB
:400380002F2BF4D9FFF7B8FE0022084B1A60034B196801220A431A6038BDC046000010400D0300000000000000000020C0000020F0B500220027FF239C4611E0BB00C658AB
:4003C000F3B26446A64308E054000C192578AD1964782C700132013BDBB2002BF4D10137012FEBD9F0BDC0460323044A1360044A13600022034B1A607047C04630003040CF
:4004000030003140000E3F4008B50A1C002100F071FF08BD08B500F0CBF808BD10B50024054B1C70054B1C70054B1C70FFF7F2FF044B1C7010BDC046131D00200C1D002085
:40044000121D0020A012002010B588B0041C144B1B78002B04D1FFF7E1FF0122104B1A70002C1AD002A80F49182200F03AFF062300930D480D49A622120102AB00F05CFFB9
:400480000B4B1C60002809D101220A4B1A700A480E210A220BF0F6FC00E0012008B010BDDC0300202C070100F9060000A8120020A41200200A1D00208007010008B50228AE
:4004C00032D81D4B1B78042B30D11C4B1B7859072FD400280BD11A4B1A1C40321E2111822022596C0A805B6C30225A800EE001280CD1134B1A1C403296211182C822D20003
:40050000596C0A805B6C8022D2015A800D4B18700B48403009F02AFE00280CD1074B197804220A431A7006E0012004E00420FF3001E00420FF3008BD0A1D0020131D0020DF
:40054000CC000020121D00207047C04603784078000218437047C04638B5041C83890B2B1FD104300021221C40230BF0D9FC051E11D16068FFF7EAFF830706D50A4B1B6848
:4005800082204000211C984705E0074B1B680620FF30211C9847054B1A7801218A431A7000E00025281C38BDA4120020131D00207047C046014B18607047C046E003002012
:4005C00000B585B06B460022DA730F330E2269460A81009301238B8068460021002200230BF09EFC05B000BD10B582B0041C154B1B68002B23D083890E2B20D10389012B62
:400600001DD142681378022B19D804300021221C40230BF085FC002811D123886A4613800023937004340194064B1B68A820FF3069469847044B1A7801218A431A7002B0B7
:4006400010BDC046E0030020131D002000B585B0002A10D0002810D1012910D101A80E23038181800192002100220BF023FC002807D0012006E0012004E0012002E00120CE
:4006800000E0002005B000BD8379002B07D000200BE0C25C002A07D10133DBB200E00023052BF6D9002000E00120704708B5034B00225A701A70FFF783FF08BD101D0020F9
:4006C00010B582B0041CFFF747FF0A4B1B78D9070ED4002809D001A912238B70A3890B80C87020680AF050FE02E020680AF0B2FE02B010BD131D0020F0B583B0041C0E1C5E
:40070000794B1D7801222A431A70282879D00CD8212861D004D801281CD0052858D0D2E0262872D0272868D0CDE0432800D1B1E006D8412800D19CE0422800D1A7E0C2E0CE
:400740004E2800D1B2E0FA2800D1B7E04C2800D0B9E0A7E001AD07272F7000236B70281C02F08BF82F7001236B70281C02F085F85E4B1D68281CFFF787FF00280CD0281CF9
:4007800000F0C8FD594D28680021FFF7DDFE28680121FFF7D9FE14E0554B1B78554D2B70554B1B786B70554B1B78AB70281C00F0B1FD281C0021FFF7C7FE281C0121FFF7BF
:4007C000C3FE002009F094FB04224D4B1A707AE00A784C4B1A7076E0434B1B78990672D4494B1B78102B02D10522474BDA70474B1878454909F084FC65E00222404B1A7010
:4008000061E004223E4B1A705DE03D4B1B78022B59D0354A1278D10755D5334A1278510708D50322364B1A702F4B1A7804218A431A7048E02C4A1278110708D50422304BD3
:400840001A70294B1A7808218A431A703BE0032B39D104222A4B1A702D4B1B78002B32D10120FFF72BFE00282DD10322244B1A7029E0264D281C022200F033FD2978490045
:40088000244B59182448022200F02BFD1BE0FFF70DFF18E04988162900D9172130880AF07FFD10E0081CFFF70BFF0CE00E4B1B78DA0708D5081CFFF797FE04E0174B19783C
:4008C00001220A431A70084B1A7811231A4209D0054B1A7801218A431A70114B1B68201C311C984703B0F0BD131D0020200100207CF1FF0F240100207DF1FF0F7BF1FF0F67
:400900000A1D00200C1D002088010020101D0020121D002000090100081D0020A0120020A41200200004000C014B18607047C046480120400004000C014B18607047C04620
:40094000540120400004000C014B18607047C0464C01204038B5051C0C1C00F062F8A540024B1D6000F061F838BDC0460800204008B500F056F8064B196802220A431A60F1
:4009800000F053F802201821FFF7E4FF08BDC04600002040014B18607047C0467801204010B50E4C8023DB042360236823600020FFF7B8FF236823600C22094B1A60012019
:4009C000FFF7E8FF3122074B1A60074C201CFFF7B1FF201CFFF7B6FF10BDC046400120406401204068012040FFFF000008B5064B1B78002B04D1FFF7D3FF0122024B1A707C
:400A0000FFF7B6FF08BDC046E4030020000000000230800803D00138FDD1C046C046C0467047EFF3108072B6704780F31088704710B586B0041CFFF7F4FF0E4B1B68009356
:400A40000D4B1B680193033C0C4B1B5D02930C4B1B68039304AA0B4B049300AB05930A4B1A600A490A4A11601B68FFF7DEFF06B010BDC04608010B4000010B408009010026
:400A800030001040B6EA0000080010401700008004001040024B1B68012018407047C0460C002E401F23184001238340181C014B1860704700E100E001BE704738B5041CDF
:400AC0000D1C1F2802D90020FFF7F6FFA400024BE4182068256038BD4000002070B5041C80252D02074E04E03068FFF791FF064BE418AC42F8D8034B58686043FFF788FFA8
:400B000070BDC0468C0100200080FFFF08B5034B1B7A5843FFF77CFF08BDC0468C01002010B5041C0F4B196801220A431A600E4A0E4B1A600E4B1968802212020A431A6007
:400B4000002809D100200CE00120FFF7DFFFFFF7A1FF002804D1013C002CF5D1102000E0002010BD60F02E400220000078002E4010002E40044B1A68C0231B021A4201D071
:400B8000012000E00020704700010B4010B50D4B1A6801218A431A601A68022082431A60094A10683024A04310242043106010680724A043014311601968802212060A435A
:400BC0001A6010BD00F02E4000FF2E4038B5031C1D4A12680120041C1440002B02D0012B16D02BE0184B19680122914319601968022081431960154B1968302081431020EE
:400C0000014319601968072081430A431A6018E00D4B1A6802218A431A600C4A10680725A84301431160116830208143202001431160196801220A431A6002E00020FFF709
:400C40003BFF201C38BDC04600F02E4000FF2E4008B5FFF7E6FE044B1968C02212020A431A60FFF7E2FE08BD00010B4010B5FFF7D8FE084B1968084A11408024E401214338
:400C8000196019680A40802109020A431A60FFF7CCFE10BD00010B40FF3FFFFF38B5051CFFF7BFFE041CFFF765FF002803D0FFF7DDFF012200E00022084B1D40084B1868B8
:400CC000084901400D431D601B68012A01D1FFF7BFFF201CFFF7A9FE38BDC0460404040010020B40FBFBFBFF10B5244B1B685A0715D5234B1B685A070ED5224B9C69042265
:400D000014401F490868A0430860996991439961DB68002B00D098470420FFF7BFFF174B1B685A0518D5164B1B685A0510D5154B9A698020C0001040114A11688143116002
:400D40009969114A0A409A611B69002B00D098478020C000FFF7A2FF084B1B685A030CD5074B1B685A0304D5064B5B69002B00D098478020C002FFF791FF10BD10020B405C
:400D80009C010020E8030020FFFBFFFF0004000C014B18607047C046080120400004000C014B18607047C046140120400004000C014B18607047C0460C01204038B5051C67
:400DC0000C1CFFF72EFEA540024B1D60FFF72DFE38BDC0460800204008B5FFF722FE064B196801220A431A60FFF71FFE01201821FFF7E4FF08BDC04600002040014B1860B2
:400E00007047C0463801204010B50E4C8023DB042360236823600020FFF7B8FF236823600C22094B1A600120FFF7E8FF3122074B1A60074C201CFFF7B1FF201CFFF7B6FF1A
:400E400010BDC046000120402401204028012040FFFF000008B5064B1B78002B04D1FFF7D3FF0122024B1A70FFF7B6FF08BDC046040400200004000C014B18607047C046A0
:400E8000880120400004000C014B18607047C046940120400004000C014B18607047C0468C01204038B5051C0C1CFFF7BAFDA540024B1D60FFF7B9FD38BDC04608002040A4
:400EC00008B5FFF7AEFD064B196804220A431A60FFF7ABFD04201821FFF7E4FF08BDC04600002040014B18607047C046B801204010B50E4C8023DB042360236823600020EA
:400F0000FFF7B8FF236823600C22094B1A600120FFF7E8FF3122074B1A60074C201CFFF7B1FF201CFFF7B6FF10BDC04680012040A4012040A8012040FFFF000008B5064BF3
:400F40001B78002B04D1FFF7D3FF0122024B1A70FFF7B6FF08BDC046050400200160704701607047244B1A781202244B1B781A43234B1B781B02234909780B4322498B4248
:400F800001D1072A06D0D42109018B4206D1042A04D102E01D4B042200E01C4B1C490B601C4B1A601C4B1B781B021C4A1278134380229201934202D0002B02D002E0184BCF
:400FC00000E0174B174A1360174B1B781B02174A12781343164A934205D0164A934204D0052B05D103E0144B02E0134B00E0124B124A13607047C046D9F0FF0FD8F0FF0F77
:40100000DFF0FF0FDEF0FF0F580B0000580D00006C002E4074002E40DBF0FF0FDAF0FF0F0220000078002E40DDF0FF0FDCF0FF0F0F0F000005050000050F000080002E40DB
:4010400008B5FFF763FD08BD08B5FFF747FD08BD08B500F031F808BD08B500F035F808BD08B500F031F8034800F00EF8032000F011F808BD1111000008B5024800F02CF86D
:4010800008BDC04611110000014B18677047C0460000002010B5041CFFF7C3FC054B1968C0229143A2010C1C14431C60FFF7BDFC10BDC0460CE400E080225201014B1A60CF
:4010C0007047C04600E100E080225201014B1A607047C04680E100E010B5041CFFF7F4FF201CFFF7D1FF0320FFF7D4FFFFF7E4FF10BDC04608B5FFF794FC044B1A68042118
:401100008A431A6030BFFFF790FC08BD10ED00E008B50FF0A9FA08BD002934D00123002210B488422CD301242407A14204D2814202D209011B01F8E7E400A14204D281422C
:4011400002D249005B00F8E7884201D3401A1A434C08A04202D3001B5C0822438C08A04202D3001B9C082243CC08A04202D3001BDC082243002803D01B0901D00909E3E7AA
:40118000101C10BC7047002801D00020C04307B4024802A14018029003BDC046D90000000029F0D003B5FFF7B9FF0EBC4243891A1847C046002941D010B4041C4C40A446F9
:4011C00001230022002900D54942002800D5404288422CD301242407A14204D2814202D209011B01F8E7E400A14204D2814202D249005B00F8E7884201D3401A1A434C08D3
:40120000A04202D3001B5C0822438C08A04202D3001B9C082243CC08A04202D3001BDC082243002803D01B0901D00909E3E7101C6446002C00D5404210BC7047002806D00F
:4012400003DB0020C043400801E08020000607B4024802A14018029003BDC046190000000029EBD003B5FFF7A7FF0EBC4243891A1847C0467047C04670B50E4B0E4D0024E4
:40128000ED1AAD101E1CAC4204D0A300F35898470134F8E70FF08CFB084B094D0024ED1AAD101E1CAC4204D0A300F35898470134F8E770BDBC090100BC090100BC0901001A
:4012C000C409010030B50023934208D0C55C0133CC18013C2478A542F6D0281B00E0002030BD10B50023934203D0CC5CC4540133F9E710BD031C8218934202D019700133AE
:40130000FAE7704710B501F059FA10BD10B500F0ADF810BD10B50749044609780220002907D1204601F06BFA002802D1204608F0C9FE10BD9A020020FFB51E4F81B0064612
:40134000397800200A9D1C46002902D0082005B0F0BD0299002900D10120002E27D0002C25D00028F3D101F029FA032D05D9A0894008A081A07B4000A0732B46224603998F
:40138000029800F019F80028E1D17D7001F01EFA0028DCD130467E6006F082F80028D6D106F098F80028D2D101213970CFE70120CDE70000A0010020FFB5002481B01D4686
:4013C0000F460646002806D00398002803D030463843800701D001243CE0032DFBD91F488742F8D3FFF748FEFFF736FE00F098FA00282DD100F0F4FB002829D11849084671
:4014000000F0C6FD0004000C22D13046154E3060B7800020F0803581AD1DEFB23946039800F066F804000ED1B088F2880837801AF9B280B201F09CF8002801D0012407E068
:40144000E8B200F00DF900F025F907490120087000F078FA204605B0F0BD0000D80800006D15000008040020A801002010B503480078012801D100F01DFF10BDA80100203F
:4014800070B5084B0446DA889E8800205518B54206D21D68AA182260DA885118D98070BD032070BD0804002001480089704700000804002030B50C4B04461B7A01209C4221
:4014C00010D20A4D2B68002B0CD0A000002902D0C3185B8B0B80002A03D029684018407E1070002030BD000008040020AC010020F3B582B00C460020890000900191684663
:40150000FFF7BEFF164D00992960002826D1002317E09A002968062B8B5406D2114E9619777851184F70718806E0029E9619203EB77A51184F7031892E6892195B1C5180DA
:40154000DBB2A342E5D3002808D168460199FFF797FF002802D1044A0099116004B0F0BDAC010020000A0100B00100207047000010B5002809D005494A68002A05D0011F73
:4015800008788000105800F0A1FF10BDAC01002010B50446FFF788FFC0B2801D0749A04202D24868002808D04968A000085800F0FFFE002801D00470001D10BDAC01002086
:4015C000F8B516460D460446FFF76EFFC0B2801DA04203D20020C0430090F8BDB2B2E9B2684600F00BFF0099481C03D0024AA000526811500098F8BDAC010020F1B500274F
:40160000FFF752FF801DC6B20B48002504680FE0607800280AD061880098814203D32078FFF7B6FF0746002F04D1241D6D1CEDB2B542EDD33846F8BDAC01002010B50446C4
:40164000FFF732FFC1B200208C4202D2A01DFFF79FFF10BD10B5002801D0FFF789FF10BD70B506460948002504680BE06178002905D062882078121D0023FFF7A1FF241D27
:401680006D1CEDB2B542F1D370BD0000AC010020002070471CB5002469460C70142001902346054A05480CF0ADFB04480068401C00D1FF2420461CBD11170000B4010020A8
:4016C0003EB5124A0146FF2000230124126800290DD0012914D0042908D104206946009308814B8110460CF088FB80B23EBD6846009304814381694610460CF079FBF4E7C2
:4017000068460093048143816946EBE7B401002070B54589046841680089030000F026F806240408081D2124002004F08FFE1BE0022908D0C8B22A4621460AF04FFE2046EA
:40174000FFF788FF10E002202A4621460AF046FE2946204600F018F806E000200CF046F802E020460CF0D4FB002070BD30B47446641E2578641CAB4200D21D46635D5B00D6
:40178000E31830BC18470000014B0022DB681847B801002070B5448905680089022803D0032809D0FF2070BD2246094C0023A46829460120A04708E0FFF7A4FD241DA2B24E
:4017C00000232946022005F04EFD002070BD0000B801002070470000024800214160018041807047B801002070B50C46002186B016460391012802D0022859D116E003A98B
:40180000012005F088FD01281BD1039D324621462846FFF766FD0095287801900220694608814E816846FFF7B5FF41E0214D002B686809D0049004A9022005F06CFD01281E
:401840001DD0022006B070BD002812D0298840182146FFF746FD28880024801980B228806988091D884206D12C801348FFF792FF03E00320E6E788421AD96C6018E0049846
:401880006860E278A378110219430B4A698000231060E3565360032313815181A1788170E178C1706178417021780170042028800020C7E7B8010020140400203EB5154612
:4018C0000C46022803D004280CD000203EBD0091019002206946088107484A8100680CF08CFA07E00AF07AFD044B0022DB6829462046984701203EBDB4010020B80100206C
:40190000014AD16090607047B8010020034801688068081A0A214843000970472004002010B5FFF79DFB542204490548FFF7D9FC03490120C870002010BD00001C0A01004C
:401940006005002010B5FFF783FB10BD70B5134C2368002B08D0207B1149C20705D04008400020738868A08070BD88680B4AA18880B29268814203D90A4D691A091802E0C9
:40198000814202D2411A5118A160A080A0689842EAD300F015F80CF04DFA70BD20040020C0102E40FFFF000010B508461946FFF7A7FF10BD704710B5FFF780FF10BD000086
:4019C00003480021016041608160C160704700002004002010B502000DD0FFF7F1FF074C0321207B0843207310010A21FFF7D8FB2060002010BDFF2010BD00002004002060
:401A000000B504480A21806848430209FFF7D8FF104600BD200400200248007B8007C00F704700002004002070B545490868CA0410430860434AD06853051843D0600868FE
:401A4000002802DA404B01221A700222904308603B480E216C30FFF783FA394801216030FFF77EFA394C3A4D21462846FFF778FA374838496C38FFF773FA0A20FFF7E4FA1B
:401A800033487C380069C30B2D484030026A134254D0012000F028FA21462846FFF760FA2B4820210830FFF75BFA294814212030FFF756FA2648FF21C1312830FFF750FA13
:401AC0002348FF212F313430FFF74AFA204822494030FFF745FA1E4820493030FFF740FA1E491B48491C3830FFF73AFA18481C493C30FFF735FA16481A495030FFF730FA0E
:401B0000134819497438FFF72BFA114817492C30FFF726FA0E4816490C30FFF721FA0C4814491030FFF71CFA09481921C9021430FFF716FAFFF716FA002070BDFF2070BDB8
:401B400000F02E4000020B40C8010020556500007C002E4092C90000320300002F3F00003102000010520000EC160000FA12000031D000003AE3000070B50646581C80B257
:401B800045086D00002408E0304600F07FF81055000A1119A41C4870A4B2AC42F4D3D80705D0D0182038D15CC47FD454C17770BD30B50A4C002100195B1E07E05418647858
:401BC0002502545C2C430480891C89B29942F5DB994201D1515C018030BD000000102E4010B5FF2000F080F90F49FF2048700E481021801D41800121417001700A49002032
:401C0000C91C4870FFF710FF04000AD100F0CCF807210648FFF7A2F9044807211830FFF79DF9204610BD0000C8010020CC112E4030B504465B1C1804450C002308E0204635
:401C400000F024F8241D59005B1CA4B250529BB2AB42F4D330BD000070B500210A4D5B1E0AE0541864782602545C344346193480001D891C80B289B29942F2DB994202D132
:401C8000515C4019018070BD00102E40014940180088704700102E40014A80180180704700102E4010B50B490020487000F07CF8002000F03FF9002000F02CF907210648B2
:401CC000FFF74CF9044807211830FFF747F9002010BD0000CB010020CC112E4010B50B46062812D006DC01280CD0032801D1FFF7D9FF10BD0A28FCD00B28FAD1054800782D
:401D0000107010BDFFF76CFF10BD1146184600F02DF910BDCE010020F8B5204DAC6A0127A0071F4E002816DA307806280ED1286A384328621B480069F903084381B219482A
:401D40001030FFF70DF9042000F0CEF8134802212830FFF703F9E00711D0062000F0C4F80F49FF20C91E48707078002802D1686B38436863094801212830FFF7EFF8E0054C
:401D80000BD53078042802D1052000F0ADF80348FF2101312830FFF7E1F8F8BD40F02E40CB01002000002E4010B503212348FFF7D7F80120FFF744F920483038406A204C1E
:401DC00080076178800F890001431C480C38FFF7C7F86078002808D0401E022181401820FFF73EFAC000083800E0B82081B21548FFF7B6F81348032109021438FFF7B0F8EA
:401E000010481149B830FFF7ABF8452189010F48FFF7A6F80D480321001FFFF7A1F80C490C48FFF79DF80B480B496038FFF798F8084801218838FFF793F810BD70F02E4026
:401E4000CE010020D8102E4090890000041E2E40FF0F000058122E40209000000849087806280BD148780749002803D1486B400840004863C86A01221043C8627047000088
:401E8000CB01002040F02E400148007870470000CB01002000B50300FFF768FC080D050D0B070507090D012000BD032000BD042000BD022000BDFF2000BD0000074A916823
:401EC000D26889B2064B92B2994204D105498A4201D1012100E000210170704780002E4033D000003FE3000010B50446FFF7B4F8072C01D9FF2C01D102480470FFF7A8F8CF
:401F000010BD0000CB0100200149487070470000C801002010B5064A012805D01921C9021046FFF71DF810BD1D21C902F8E7000090002E4010B50A4A141D012808D009497D
:401F40001046FFF70DF808492046FFF709F810BD04491046891CFFF703F80349491DF3E788002E4031D000003AE300000078074AFF2803D04C2804D9553803E01078087038
:401F800070474F380870107070470000CA01002010B50F4A002313600E4A13600E4B18600E4801600E49012008600E490860000290600E490C4808600D4914300860FF3865
:401FC0001538506000F0BCF800F0CAF9002010BDEC010020D40100200002002004020020F0010020E001002030050020E4010020F8010020014610B50020002910D0094B48
:402000001A689C685118A14209D25868196080188A0704D08A07920F891A091D196010BD002010BDD4010020F8B50024164E671E321F3D463168136806E0142262431032F5
:402040008A58521C1BD0641C9C42F6D36A1C14D02C461422544322460C3288500C214843FFF7C8FF3168002808510AD031680020103408517068401C70602846F8BD254686
:40208000E4E73846F8BD0000E4010020F3B50026F64381B000281BDB1E490968884217D80299002914D01B4F142204463F1D54432546396810354859401C09D0FEF7CCFFCA
:4020C00038682F1F4159C359994203DBFEF7C0FF3046FEBD214608310091465801590C20704308180C220299FFF7FBF80948761C001D0068C159B14200D100260549009A70
:40210000091D865008684159491C4151FEF7A0FF0020FEBDE0010020002803DB07490968884202D90020C043704704491422091D096850431030085870470000E0010020E7
:40214000F0B500200D4A451E0346171F50600FE014260146714314680E1DA3510C461668083433511668083435511468401C635039688842ECD30020F0BD0000E40100209B
:40218000F3B50026F64381B0002841DB2349096888423DD8029900293AD0204F142204463F1D54432546396810354859401C2FD0FEF752FF3868415900292BD0211D009177
:4021C00046580C21005971430F46C1190C220298FFF787F811480021001D0068761C00590C34C0190160416081600C48001D00680159B14200D100260849009A091D8650B1
:4022000008684159491E4151FEF722FF0020FEBD3046FEBDFEF71CFFFAE70000E0010020FEB504460D4600201E49089E0860471E009001900290002C11D0486885420ED226
:40224000002A0CD0002E0AD0642E08D808460C3001681C2068430C18207A002801D03846FEBD0120226020721846FFF7DDFE6060401C13D06681A6810A4827610C306761C5
:402280000179A94200D205710021684601810A462846029B00F040F82846FEBD00202072DDE70000EC01002038B50124009400F039F838BDFEB50027164EFF433D4600240E
:4022C0000EE01C20316860430818017A002906D04068FFF721FF002801D0254603E0641C3079A042EDDA681C12D01C2130684D434419FEF7B1FE69466068FFF741FF054643
:40230000FEF7A6FE002DD9D1216868468847D5E7FEBD0000F801002038B50024009400F001F838BD1FB500220C49541E0A60002811DB496888420ED808491C220C3109683B
:4023400050430818406801A9FFF7A0FE401C02D0002004B010BD2046FBE70000EC010020F0B50021114A4D1E174611710C3F0B46BD6016E008461C2460431668041D355130
:4023800014680646235014680836A3551468361DA353044616680A34335318301468491C255078688142E5D30020F0BDF801002038B500210091002811DB0F4909788842AA
:4023C0000DDA0D4D04010C3529680859002807D0201D0818694600F06DF9002801D0002038BDFEF739FE28680F34015D491E0155FEF72EFE009838BD08020020F7B582B025
:40240000002502986E1E06602E48D21C024017462D4A2C4610460C380178106805E02301C358002B0FD0641CE4B28C42F7D3711C28D03401211D40180191039900F028F909
:4024400000281FD101E02646F1E71F48016820460C300F521C480399026820460E30115419480399026820460F3011540398784300F0A0F8144900280968085102D0002445
:40248000009011E001251AE00F48016801980818009900F02AF9002801D0012502E00098C0190090641CE4B203988442ECD3002D05D10298066004480179491C0171284610
:4024C00005B0F0BDFCFF000014020020F8B50D4600216A468C461180002839DB23490978884235DA214B04010C3319680A59002A2ED020460C300B5A801C0E5C1846704339
:402500008018954224D3854222D2002006E007465F43BF18AF4206D0401CC0B2B042F6D36046002814D0114E271DC8190C366A46294600F004F900280AD168460088012878
:4025400008D030682946C01900F0CFF8002803D00120F8BD0020F8BDFEF77EFD30680F34015D491C0155FEF773FDF3E708020020F8B50F46002400F033F8002817D10C49D3
:4025800000220B460C334A600EE021011D680E466A501D680C36AA53B61C1D680F31AA551D68641C6A54E4B2BC42EED31A71F8BD08020020014610B5002000290CD0C91C2A
:4025C000064B8A08596892005C888A18A24202D898685A60401810BD002010BD08020020F8B5044600200D4E009031700D01748029466846FEF744FF00280DD131460C31B7
:4026000000980860601B001F81B26846FEF738FF0099B160002800D0FF20F8BD08020020F8B5002827DB19490978884223DA174C05010C342168485900281CD028460C3041
:40264000085A009028460E300E5C401C0E5420682F1DC01900F064F800280CD12068002445590EE0094829460C300068C01900F03CF8002801D00120F8BD00982D18641CD1
:40268000E4B2B442EED30020F8BD00000802002030B50D4604000BD0A800FFF78BFF6060002805D000202570C0436080002030BD012030BD70B50D46040005D0002D03D0CE
:4026C0000220205E002801DA012070BDFEF7C4FC0221615E60688900405828606088401E6080FEF7B5FC002070BD70B50D46040007D0002D05D002212078615E401E8142D8
:4027000001DB012070BDFEF7A7FC6088401C00B26080616880000D50FEF79AFC002070BD10B5040009D0227800216068FEF7E2FD0020C0436080002010BD012010BDF0B507
:4027400000231D46002802D00224045F0AE00120F0BD46689F00F6598E4201D1012503E05B1CDBB29C42F4DA15700020F0BD000001480078704700001C0200207CB505461D
:402780000024FEF7BFFDA8796946087000A8062229460130FEF7A5FD0021684604F0B4F80C2804D0072804D01F2804D004E0022402E0042400E0272420467CBD10B500F0CD
:4027C000B7F8FFF761FBFFF765FB10BD10B503240CF018F8002810D10BF0BCFF00280CD104F0E8FD002808D100F064FA002804D104F0E4FA002800D10024204610BD70B58D
:402800000025044600280ED0A07901280BD8FEF779FDA0790028204602D002F0D3FD03E002F088FD00E00125284670BD38B504460120002C20D0617801291DD800290BD0ED
:40284000FF25E535FEF75EFD2846FFF71FFAC0B22070072803D00EE0FF25CD35F2E70020694608706846FFF729FB69460878012801D108202070002038BD70B504460120C6
:40288000002C1FD06178012902D92278092A19D8002905D0FF25E5352078092803D004E0FF25CD35F8E707202070FEF72BFD2078082808D00020FFF73DFB21782846FFF7E1
:4028C000EBF9002070BD0120FFF734FB0721F5E770B50D46040001D0002000E00548002802D0012101F0A6FF2946204602F080FA70BD0000D405002038B505460020044608
:40290000009022466946284600F06CFE0098002801D00BF059FFA878214602F0ADF8A878214602F09CF8641CE4B2052CE9D338BD38B5FFF7A9FA042819D0052817D0062844
:402940001AD0032842D007280AD100206946087002460120FFF7C2F9FFF796FA0128FBD138BDFEF7C7FBFFF78FFA0128F8D0FFF78BFA0128F5D138BD02F0E6F805E0FEF725
:40298000B9FBFFF781FA012803D0FFF77DFA0128F5D1A12424012046FFF778F901220E4983079B0F0A70022BE5D149880029E2D0104301462046FFF76FF92046FFF766F913
:4029C000410849002046FFF767F938BD02F0C0F80120FFF789FA38BD22020020F8B50646002402F0F3FD0546304602F007FE00210346012632468A40174610462F40184013
:402A0000002F03D0002801D1224394B2491CC9B20529EFD32046F8BD1CB50020694648706846FFF703FF01AA69460A20FFF756F96946042008561CBD10B50C4601F076F9BC
:402A4000002809D00179002906D0C1788078224602F07CFA002010BD022010BD0148007870470000A00500204030C07E002800D00120704700B500F001F800BD88214843B5
:402A8000064940186030417F491CC9B24177052901D300214177C8B270470000B405002013B501F043F904000BD001F096FC002807D0214601AA0A310620FFF70FF90020BB
:402AC0001CBD02201CBD000010B50C4601F02EF900280AD001F081FC002806D0224604490A20FFF7FBF8002010BD022010BD000089050020F3B581B00746014600260298E6
:402B000002F05CFD0446002F01D0002500E0154D002D21D0284601F03FF9032C04D13946029802F075FD06463846029901F097FF032C06D0002C10D00121384601F01AFAC1
:402B400003E03146384602F017FF284601F058FE0221284601F06EFEFEBD3846029901F07EFFFEBDD405002070B50446002503F005FB002801D00C2070BD2078611C02F0FC
:402B8000DFFAFF2802D01F25284670BD02F02CFBFF2804D02178621C01F0D6FEF4E70725F2E710B503F0EAFA002801D00C2010BD02F09EFA002010BD70B50D46044610219C
:402BC0000BF042FD1021601806460BF03DFD334610221946204603F0FDFA102130460BF033FD02202870204604F040F870BD70B504464078217802028006850FE078114342
:402C0000A67809050002090D0643084601F08EF8002812D0022D10D0032D0ED0002E08D00179092909D0002907D0214600F0A1F870BD0089002103F04EFF20460BF0C4FD67
:402C400070BD0020704770B50446002503F096FA002801D00C2070BD2078611C02F070FAFF2802D002F0B2F900E01F25284670BD10B504F0A3F800F0F6F8002010BD10B53D
:402C8000044600786178E2780843A17811430843217908436179084305D003F061FA002803D00C2010BD122010BD204602F08AFB002010BD10B5044803F0CAFA02F090F9EF
:402CC00000F004F8002010BD70050020F8B5114D00266E706E736E716E76AE76EE766E75AE70EE70AE712F46EE730120B03778723F2078719B20B87100F00AFA002420463B
:402D000001F032FB641C2406240EF8D03E72FE71AE73F8BDB405002070B505460E46084602F054FC0446304602F068FC0121A9400A46224001400A4301D0012070BD00200F
:402D400070BD10B50446084602F058FC0121A140014201D0012010BD002010BD10B5FFF793F8032804D101F0F3FE0120FFF7BCF810BD70B5044600790D4609281CD0002851
:402D80001AD020464030817E491C8176204601F037FDA078FFF76EFE064602462946204600F00CF8002806D1A0783146FFF790FD28460BF009FD70BD0846FAE7F7B50546C3
:402DC00048780C468006870FC8788978000282B0014368468180284601F00AFB060007D021462846049A00F091FB304605B0F0BD384600F039FC0746034601AA294620467C
:402E000000F0CAFA68468088231DC0B20090A878FF22049901F0A6FF684680883B46C2B2A878049902F04AFBDFE770B5002500242846FFF7D3FD060010D03046E040C00728
:402E4000C00F07D02146284601F0FDFD21462846FFF750FE641CE4B2052CEED36D1C2D062D0EE4D070BD10B502F0BAF8FFF72EFF0BF012FD002010BDF8B5002400F081F836
:402E80000123012800D10124104F00203E4620360425082203E0002801D0002100E031460979002907D001290BD002290BD0114681402143CCB2401C0006000EEBD07C7031
:402EC000F8BD1C43F7E72C43F5E70000B405002010B5FFF7D1FF10BD10B50B4681791943817103D08078114602F0ACFA10BD10B582798A43827102D1807802F0BBFA10BDC0
:402F000070B5FF25D53502242846FEF7BFFE0C4A9178002901D0022906D1137852789A18282A01D9032402E0032900D101244105490DE00201432846FEF7AEFE70BD000041
:402F40001E02002010B500F022F8002807D0012805D0032801D0042801D0002010BD012010BD014610B50020C90701D000F009F810BD014610B50020C90701D000F001F830
:402F800010BD10B52020FEF781FE000A10BD10B51820FEF77BFE410501D5042010BD4007800F10BD38B5044640060CD5684601F0D5FD0220FFF78CFF072002F02DF968467A
:402FC000007801F03FF9200613D5FFF7E0FF01280FD1684601F0C2FD6846007800F09AFA072002F019F9012001F072FC0220FFF76FFF38BD10B5034A0178117002F01BF904
:40300000002010BD1E02002010B50446FFF7B9FF002801D00C2010BDA27B01211848002A827801D00A4301E05208520082706279012A0FD0C17849084900C17020790128A9
:403040000CD06188208802F005FF2080207904280BD00DE0C2780A43C270EFE7E01D02F099F90848808C208002E0E01D02F092F9054920798870204602F0ECF8002010BD50
:40308000B4050020600500201E02002038B50478FFF777FF844201D10C2038BD002C18D0072069460870FFF74DFF012807D10121684600F08DF8012801D0092038BD684634
:4030C000007802F0A9F8FFF71BFF02F0F0F8012010E0FFF737FF012806D1684601F03EFD6846007800F04AFA072002F095F802F0D5F80220FFF7ECFE002038BD10B5034ADC
:403100000178517002F076F9002010BD1E02002038B568460BF0EEFA002801D01F2038BD01210098C90201804180002505714571857107214173857302F08CF8009C2022E6
:4031400000212046FEF7D6F825702A460021601CFEF7D0F8204602F06EF8204602F04AF900980BF031FB042200210248FEF7C2F8002038BD1E0200200346084800B58342E6
:4031800009D8184600F0D2FD002804D00089984201D1012000BD002000BD0000FF0E0000074A9179491C8906890E917138220A4092014907090E11430843024908407047A9
:4031C000B4050020FF0E0000C006C00E70470000F8B507460E4600240D4803E0002C01D0002500E005462979002905D0641C2406240EF3D00020F8BD204601F0B5F82E71F0
:403200002046FFF7CDFF28813C700120F8BD0000D405002010B503F011F80222002100F003F801F085FE10BD10B5094B40074907000F090F185A595A40185043C0086421DC
:40324000FDF7AEFF002800D1012080B210BD0000700A0100F7B53D20405C88B016460C46002829D030786946087200252046FFF7FBFB012800D00125204603A938300191FA
:40328000009023460327A17E34332A46206A02F0F9FF02A8089900900B46019120463A4603A9243002F078FF02466846007A3070204601F045F810460BB0F0BDFFB587B027
:4032C0000C4605461078694608723D20005D1746002826D000262046FFF7C6FB012800D00126204603A93830019100902346A17E34333246206A02F0C5FF02A80090291D25
:40330000019120462B1D03A924300A9A02F044FF02006846007A388002D1204601F010F810460BB0F0BDF7B53C20405C88B015460C4600280CD0287869460872002806D04E
:4033400000262046FFF790FB012803D003E01F200BB0F0BD0126204603A938300191009023460327E17E34333246E06902F08AFF02A8089900900B46019120463A4603A912
:40338000243002F03BFF02466846007A2870204600F0E0FF1046DBE7FFB505463C20405C87B016460C46002810D0084601F020F801280BD0308869460883002809D00027DF
:4033C0002046FFF751FB012805D005E000200BB0F0BD0220FBE70127204602A93830019100902346E17E34333A46E06902F04AFF06A80090291D019120462B1D02A92430FD
:403400000A9A02F0FBFE02466846008B30806846008BA870000AE870204600F09BFF1046D5E770B50D460446FFF71EFB01280AD0E87AA97A00020143A07801F049FC012801
:4034400008D0002070BD00222421204602F04CFC242070BD28214C200155204600F09AFB282070BD002801D0002000E003484030C07F012800D0002070470000D405002088
:403480000146002049070ED50021084B03E0002901D0002200E01A461279022A04D0491C0906090EF3D0704701207047D40500200146002049070ED50021084B03E0002944
:4034C00001D0002200E01A461279022A04D0491C0906090EF3D0704701207047D405002010B5044680346068002803D00BF080F90020606010BD4030417070474030817058
:4035000070474030017070470171704792001018C166704770B53C2501F0F4F8040004D020460021433001F08DFB2946204600F0C0FB002C02D0A07801F076F870BD0000AB
:4035400010B5002801D0002000E00348002802D0008903F007FB10BDD405002010B5002801D0002000E00448002804D00179072901D100F041F810BDD405002010B501F0DD
:40358000C1F8002802D0807801F04EF810BD00207047000070B50546008A00281ED010491122897A1140C90618D5294640314A8A098A521C4A4392B2D10800D1012154082B
:4035C00001E0621A94B2A042FBD9FFF7D1F8012804D1298AA878224601F058FC70BD00006005002000230B60052A04D292001018C26E0A60C366704738B5044600200090D5
:40360000A079002814D14020015D052901D00E290ED168460BF07EF8002809D12046009902F04AFB03481021C28A2046FFF754FC38BD00006005002010B50B4604460146A5
:40364000184602F019F8002802D020460BF0C6F810BD13B5044601AA11460620FEF73EFB6846818861811CBD002800D10220704770470000F8B504462346401D54330090CC
:403680009A1EA078911E01F078FA25464035A88A298A8000FDF784FD401E81B2688A884203D96982A07801F04AFF20460021433001F0C8FA8020FEF7E9FAE88102F0BEFDCD
:4036C000E989891C8AB26179FFF7AEFD01F030FC02F0B4FD2A8A6179FFF7A6FD074601F019FC688A00280BD0FF26F1363046FEF7CDFA0321090201433046FEF7CDFA02E0C8
:40370000002001F00AFFFF206130FEF7BFFA6E8A002E0BD070431049FDF7A2FD0004000C01D0401C80B20D49488002E00B4800214180288A704381B2A07801F069FE283766
:40374000B9B2204602F08AFBE98AA07801F0B8FDA07801F0A7F9F8BD71020000220200207FB504468034616805460E46183108226846FDF7B6FD31462031082202A8FDF7C9
:40378000B0FD102168460AF05FFF6068102108300AF05AFF60682B46083024331022694602F018FD7FBD10B504460821FFF79FFB10212046FFF79BFB207905281FD00628E7
:4037C0001DD008281AD12189002003F043F9072020712046FFF748F9014620464030012913D00E21017000210176204600F028FF2046FFF775FE2046FFF7CCFE10BD208929
:403800000122002103F00AF9E1E70521EAE70000FFB581B01F4604460821FFF768FB10212046FFF764FB2079082803D0092804D0042203E00422012501E009220025204600
:4038400000F0C2FD264600204036307022712046FFF746FE0398002D02D0012808D00BE001280AD120890022029903F0D7F804E02189029803F0EEF8012700203076012FF3
:4038800004D0204600F0DCFE05B0F0BD02983073204602F055FA054605480121C28A2046FFF71AFB002DEFD109202071ECE700006005002070B50C460546FFF7D5F801289A
:4038C00009D108212846FFF712FB0023012221462846FFF79DFF70BD10B5044600F074FD2046FFF7FDFD00214034217010BD70B505461A24FFF7B8F8012809D108212846D3
:40390000FFF7F5FA0023012221462846FFF780FF70BD0000F8B50446002000900E4668460AF0F8FE002801D00D20F8BD8420005908212030009D00F0F4F92046042138308E
:4039400000F0EFF9002E02D1204600F07BFD2946204602F041F90E480821C28A2046FFF7BBFA204600F0D3FE25464035002808D0204600F023F8002801D009202870002071
:40398000F8BD08202870204600F03AFFF7E7000060050020014610B540310A460978082906D0092907D00A2901D100F091F810BD0B20107010BD00F001F810BD70B504465A
:4039C000007925464035052805D0062803D008280FD00C2070BD03220621204602F084F90D480821C28A2046FFF776FA1120287010E006202873204602F0A2F90646AA8A5F
:403A00000A20424301212046FFF766FA002E01D109202071002070BD6005002038B504460020009068460AF075FE002801D00D2038BD2046009D00F08BF9082020712046BA
:403A400000F000FD2946204602F0F8F800213D2001550F2040210855204600F0D1FE002038BD00B5024600F0AFFC10214032117000BD10B50446FEF7F7FF012809D04020D2
:403A8000005D112805D100231A4606212046FFF7BFFE10BD10B5FFF786FE10BD38B504460021684600910AF035FE00280CD12046009902F03AF905480821C28A2046FFF7F3
:403AC0000BFA0D204034207038BD00006005002038B504460021684600910AF01BFE002801D00D2038BD2046009902F013F905480821C28A2046FFF7EFF90C20403420701E
:403B0000002038BD6005002000787047F8B50025002801D0002400E01A4C002C28D0204600F05BFC002823D0207903281CD005281CD026464036B18AA07801F077FCB07811
:403B4000012815D10021204601F0B3FD274680373868002802D00AF04BFE3D600020B0702079072805D007E0042000E006202071F8BD2046FFF70EFD0221204600F05AFE04
:403B8000F8BD0000D405002010B54C22115400F046F810BD10B50446FF21FFF7A8F909202071A07801F072FC10BD000038B5FF216A461180002801D0002400E0064C002C37
:403BC00008D011460620FEF789F8684601882046FFF73FFD38BD0000D405002010B504468079002809D022214C200155FF212046FFF77DF9204600F012F810BD10B50379CF
:403C000002464032002B03D01173092B02D003E0002100E02221117300F001F810BDFEB504460089002701902781207926464036002817D0012815D002280AD112E002AAC0
:403C40006946204601F006FD002807D100980AF0C5FD204601F026FD0028F0D02046FEF74BFEB776254680352868002802D00AF0BFFD2F606868002802D00AF0B9FD6F607C
:403C8000317B002902D0019800F044F8A078002100F01CFF2046FFF7BDFAA07801F002F8A07800F0C1FC0B20FFF712F900F000FCFEBD70B50E46054602F0BCFA044606707A
:403CC0002846FEF7D1FE014601204140204661700C3000F0A0FF002D10D02889608028464030C1782171002E10D169796171018AE180418A2181808A608107E01820FDF746
:403D0000C5FFC005C00F207100206080204602F04AFE70BD0A4610B50146002002F03AFF10BD10B50AF06CFA10BD000000B50146FFF74AFA002801D0002000E003480028C5
:403D400002D002898A4200D0002000BDD405002038B5044680346068002806D168460AF0E9FC002801D100986060606838BD000010B5014600F03CFB0128887802D0FEF703
:403D80007DFE10BD88214843024940186030007F10BD0000B405002070B5054604464035A87F012811D1A1788820084A484380186030067F3046FEF7AFFF002805D102204A
:403DC000A877A078314601F021F870BDB405002010B50E4CE079002816D0FFF726F80C48827FC17F808B00F06BFB01280CD10020E07100F0BCFE0446AC20FDF747FF010BF8
:403E000002D0204600F00EFA10BD000064060020B405002070477047490510B5490F0B00FDF7A4FC060704080C0C0F073E21FFF7ABFE10BD0821FFF7E1FE10BDFFF7EFFEEA
:403E400010BDFFF7CBFE10BDF8B507460025002D01D0002600E0204E00F064FE3046403044890021418100F067FE304600F0B5FA01282BD1A00702D52846FFF747FEE006D4
:403E800002D52846FFF792FEA00601D5FEF7CDFF600601D500F0C8FA200602D5284600F01DF8600702D5284600F0FAF9380402D52846FFF753FB780402D52846FFF740FB56
:403EC000E00703D021463046FFF7A6FF6D1C2D062D0EBCD0F8BD0000D4050020F8B5002801D0002400E0204C002C39D025464035A878012834D1E98AA07801F0E1F920462A
:403F0000FEF7B2FD01282BD002F098F92A8A6179FFF78AF9064600F0FDFF2836B1B2204601F09CFFE98AA07801F0CAF9FF206130FDF7ACFE6E8A0D4F0146002E11D0304697
:403F400048430B49FDF78CF90004000C01D0401C80B27880288A704381B2A07801F058FAF8BD0020F5E70000D4050020220200207102000070B50D46124A010001D0002464
:403F800001E014462034002C1BD0204600F030FA01280AD18820484380186030007FFEF7BBFE002801D101F055FE20464030817E491B8176204600F023FC2089294602F062
:403FC0008AFD70BDB405002070B503460088FFF7ADFE040013D000F000FA00280FD02079092819D02546997840352973204601F0A7FE0646A878012803D0AA8A02E00220E9
:4040000070BDEA880A20424301212046FEF764FF002E01D109202071002070BD0EB5002217216B460292198100905A810120029B00990AF04FFC0EBDF8B5184E0024F079DD
:40404000002820D10025AC20FDF720FE000B21E0204600F007FEFDF719FE07462A46214600F02EFA01280FD00D48012187838577C477F171002D01D0002000E020300028DE
:4040800001D000F0BDFBF8BDAC20FDF7FFFD000B641CE4B20028DBD1F8BD000064060020B405002010B50088FFF740FE002809D0014640310C460978082905D00B2903D0EF
:4040C0000C2010BD022010BDFFF778FC002801D009202070002010BD70B503460088FFF725FE040008D0254640352878082805D00B2803D00C2070BD022070BD84200059B4
:4041000010220830991CFDF7ECF82046FFF728FB2878082804D02046FFF7DAFC002801D00A202870204600F06BFB002070BD000010B50C46002121700088FFF7F7FD030031
:404140000BD000F04AF9002807D009481121807A0840C00603D4112010BD022010BD022020701A8A1889002102F030FD002010BD60050020F8B50F46002100910088FFF708
:40418000D5FD040012D000F028F900280ED0E079410641D4617E02264A07002A08DB8907402500291ADA2843E07135E00220F8BD02F040F80021017021894180A18981800A
:4041C000217E4170E189C1803E7005460178134802F062FA284602F09DFC1DE0204600F00DF9012806D068460AF094FA002803D00720F8BD2A20F8BDE07900992843E0719E
:40420000204601F0C7FD607E0421304360760448C28A2046FEF760FE0020F8BD1D040000600500203EB500220F236C460292238100910190628169460EC900200AF04AFB30
:404240003EBD000070B5054600F05CFA040021D003202071254600264035EE76E6702046FFF708FA01F01AF80920FEF731FEA07800F006FD0121204600F0DCFA2E706E70A1
:40428000AE7000212046FFF714FD0449887B401C887370BD284601F0F9F870BDB405002010B5002801D0002400E00A4C002C0FD020464030417802290AD100214170204638
:4042C000FEF7D2FB002803D10221204600F0B2FA10BD0000D405002070B503460D460088FFF724FD04000BD000F077F8002807D012481121807A0840C00603D4112070BDAF
:40430000022070BD20464030418A008A491C41430804C10C5888884201D2122070BD20822079072802D12046FFF734F9022028702089002102F072FC002070BD60050020E9
:40434000016A491C016204D1817E491C4906490E81767047C169491CC16104D1C17E491C4906490EC176704770B500250646002801D0002400E0114C002C1CD088220021EC
:404380002046FCF7B7FFA67000202646207140363070204600F018F8204601F07FF9084820820848B577807A1121084000D001202075012070BD002070BD0000D405002074
:4043C000B80B000060050020002101628176C161C17620300177417770470079002805D0012803D0022801D001207047002070474030807F002800D0012070474030007827
:40440000002807D0012805D0052803D00E2801D0012070470020704710B5807801F0EEF8002800D0012010BD10B500F0A0FB0446AC20FDF72BFC010B02D02046FFF7F2FEA4
:4044400010BD000070B5054604464035A87F002823D1FF206075A0788821144A484380186030417F8823491CC9B24177A078584380186030052901D300214177A0788821BD
:40448000484380186030467F0677A1783046FEF743FC002802D00120A87770BD0220A877A078314600F0B2FC70BD0000B40500200020401C0006000EFBD000207047000037
:4044C000F0B515468207920F85B0C004C00E02926A469080002D01D0002400E0514C002C29D0084600F0BEFB03906846808800280BD00298012845D0022843D003280CD054
:404500003D20005D012872D086E00398FDF7BEFB01462046FFF79DF87EE00020029002A80AF0D8F8002807D03D20005D012876D12046FFF705FF72E06846029E8388324640
:4045400000210398FDF718FB0398FDF79FFB01462046FFF77EF8284600F0B0FA01AA21463046FEF777FE002806D030460AF022F93D204C21085528E0F5773146204601F04A
:40458000DBF94CE000200090278968460AF092F8002802D0002005B0F0BD6846009E8388321D00210398FDF7E7FA0398FDF76EFB01462046FFF74DF8284600F07FFA254694
:4045C0004035287E00280CD103E02046FFF7E2FA25E001AA21463046029BFEF76FFE002806D030460AF0DCF83D202873EDE710E00298FFF73DF8390A000101433770717021
:4046000068468088B070000AF0703046FFF706FD05E02046FFF794FE284600F04FFA0120B9E70000D405002010B5044A917B002901D0491E9173FFF797FE10BDB4050020E2
:40464000F8B5074606464037B87F00283DD0B0788821009048431F4945186035287F0099FEF76FFB012831D0287F401CC4B2052C00D300240020B877FF276F772F77A87741
:4046800002460146009800F041FD717DFF2903D0304600F0C4FF777501F0DCFA00252F462246694630460097FEF79CFF0099002902D03046FEF75DFB641CE4B2052C00D321
:4046C00000246D1CEDB2052DEAD3F8BD0320B877F8BD0000B405002010B502460021084B03E0002901D0002000E018460479944204D0491C0906090EF3D0002010BD0000CC
:40470000D405002000B50120FFF7E6FF00BD10B5044601F08FFD2189018080346168416061682831816002F0AFF910BDF7B50646087982B00C46092807D0A078F077084601
:40474000FFF756FE012806D010E030460AF046F8022005B0F0BDA1788820284A484380186030007FFEF7D8FA012810D0A078FEF779FE01280BD037780121304601F017FAC8
:4047800025462035062F36D00B2F0FD107E06846027C21463046FEF74FFF0D20D9E72046FEF762F9012801D1002028772046FFF7DFFA054604AA21463046FEF7B4FD012082
:4047C0005F2108556946087C0090A07833463A46294600F0C7FA69460A7CA0780323294600F06CFEA0782946FEF772F8304609F0F5FF0020ADE70120D7E70000B4050020F7
:4048000010B502464032937F0021002B03D1927E002A00D00121064AD279002A00D000210279092A00D10121807800F063FE10BD6406002070B50C460646FEF715F90028B6
:4048400014D1012C0ED935464035A87800280DD1687802280AD03079092807D03046FFF7DBFD0446204600F080FD70BD0124F9E770B50D4601280BD0082808D1A824114659
:40488000B020FDF709FA29462046FDF705FA70BD2020FAE710B501460820FDF7FDF910BD10B50446FF20F130012C01D1FF20D530002200F06AFE1020FDF7E8F90349A04310
:4048C000088001461020FDF7E7F910BD2602002010B504461020FDF7D9F90449A043088001461020FDF7D8F910BD00002602002010B50446012802D0082C07D102E0FF20AB
:40490000D53001E0FF20F13000F034FE1020FDF7BDF904492043088001461020FDF7BCF910BD00002602002010B504461020FDF7ADF904492043088001461020FDF7ACF9C7
:4049400010BD000026020020F8B507460120B84085B214460E46012229467C2000F015FE32462946782000F010FE6078217800020143E078A578000205436079267900028C
:4049800006430C2047430D2080013C182046FDF783F9241D29462046FDF77EF9201D3146FDF77AF9F8BD8B00034310B5D10191201943C000FDF770F910BD000070B5054600
:4049C0000C46407829780002014341200001FDF763F9E878A978000201430A48FDF75CF960782178000201438320C000FDF754F9E078A1780002014302480830FDF74CF9E5
:404A000070BD00001404000070B50D46044681B201208002FDF740F9210C0448FDF73CF981202946C000FDF737F970BD0404000070B5054600242846FDF728F9641CA4B2B4
:404A4000102CF8D370BD10B50C460146B020FDF723F9FF2021462D30FDF71EF910BD10B50C460146B020FDF717F9204600F0B8FD0021FDF711F910BD70B50C46054600F02E
:404A800005F821462846FFF7DEFF70BD10B50C460146B020FDF700F9FF2021462930FDF7FBF810BD10B50146B020FDF7F5F8FF20002220211D3000F068FD10BD010210B500
:404AC0004D310020FDF7E8F810BD000010B504020029014608D0B020FDF7DEF8214675310020FDF7D9F810BDB020FDF7D5F8512000214001FDF7D0F800210348FDF7CCF8C7
:404B000021467631ECE70000240A000010B554210020FDF7C1F810BD10B553210020FDF7BBF810BD10B5034908884880FFF7D0FE10BD00002602002010B502484088FFF7B6
:404B4000F3FE10BD2602002010B5FDF787F910BD10B552210020FDF79FF810BD10B504461820FDF793F88004400F207010BD10B5B020FDF78BF8C0B210BDF8B50E460146F0
:404B80001C461546B020FDF787F8FF20E930FDF77DF80746FF200130FDF778F83080FF200930FDF773F82880FF200530FDF76EF8208079070698490F0170F8BD10B5C820AD
:404BC000FDF764F810BD10B50C46002812D05820FDF75CF82070000A60705C20FDF756F8A070000AE0706020FDF750F82071000A607110BDFF20C130FDF748F82070000A52
:404C00006070FF20C530FDF741F8A070000AE070FF20C930E8E770B504466820FDF736F806466C20FDF732F805467020FDF72EF82670310A6170A570290AE1702071000A38
:404C4000607170BD10B50446012905D01820FDF71DF8C00B207010BD4820FDF717F88007C00FF7E70120C002704710B50C460146B020FDF711F80321A0014902401810BD26
:404C80008821074B414310B5C918FF2260314A770A7700228A77114600F038FA10BD0000B405002088225043074A10B58018FF21603041770177002181770448418EFF207B
:404CC0001D3000F057FC10BDB40500206005002010B50C460146B020FCF7DEFFFF202530FCF7D4FF0222214600F002F810BD000010B50023884201D8081A03E00024E443A4
:404D0000201A4018044980B2884201D8824200D90123184610BD0000FF7F0000F8B503465078167800020643D07895780002054350791779000288240743002900D0982419
:404D40001946B020FCF7A8FF31462046FCF7A4FF201D2946FCF7A0FF204608303946FCF79BFFF8BDFFB581B014460D4606460A9FFFF77BFF3B460021049AFCF76DFF02487A
:404D80004019845505B0F0BD2A02002070B506460D4611242520A40108214001FCF77CFF2B46324600212046FCF756FF70BD70B5212405466401FFF7AFFE10232A460021F2
:404DC0002046FCF749FF70BD10B5044640782178000201438F20C000FCF75EFFE078A178000201430148FCF757FF10BD7C04000010B50C460146B020FCF74EFF8020214675
:404E00000143FF202930FCF747FF10BD70B50D460146B020FCF740FFFF241D342046FCF735FF01090901FF202943013001432046FCF732FF70BDF8B500242646012807D0E6
:404E4000032802D0052808D105E002240A2604E004240C2601E004240D26492701463F013846FCF719FF25204001FCF70FFFC5B228462042F7D0252031464001FCF70CFF6A
:404E800000213846FCF708FF2846F8BD70B50D46044601461646B020FCF7FEFE512029464001FCF7F9FE31460648FCF7F5FE032189030820FFF71CFD210275310020FCF799
:404EC000EBFE70BD240A000070B50D4604460146B020FCF7E1FEFF2029461930FCF7DCFE21024B310020FCF7D7FE70BD70B5491E8CB205460146B020FCF7CEFEFF202146FA
:404F00001930FCF7C9FE29024C310020FCF7C4FE70BD0000054910B5884200D908460146FF206130FCF7B8FE10BD0000FF0F0000054910B5884200D908460146FF20653046
:404F4000FCF7AAFE10BD0000FF0F000070B588251446002900D098250146B020FCF79CFE2846FCF793FE2070000A6070281DFCF78DFEA070000AE07028460830FCF786FE8F
:404F80002071000A607170BD10B51446024611200B4680010021FCF74BFE012C01D1FFF7B5FD10BD10B504460920C001FCF76EFE2070000A60700448FCF768FEA070000A9C
:404FC000E070FFF7A3FD10BD840400000121814010B589B200227C2000F0D7FA10BD000070B5FF210120FFF75BFCFF210820FFF757FC3020FFF76CFC80210020FCF74CFE57
:40500000002211460320FCF769FE374DFF20A98DD530FCF741FE0024FF26F1362146B020FCF73AFE298F3046FCF736FE2046FFF739FE641C2406240EF0D0FF20A98FF93094
:40504000FCF72AFE28481030044600F073F9204600F0B8F900F04CF8234CB82040346188FCF71AFEA188BC20FCF716FEE188C420FCF712FEFF20698EE130FCF70DFEA12093
:4050800000210001FCF708FE3920FFF74DFCFFF743FD93200721C000FCF7FEFDFFF736FDE020FFF7C5FCE820FFF7C2FCF020FFF7BFFC0020FEF7AEF8618A0C48FCF7ECFD4B
:4050C0000A482821001DFCF7E7FDFF210131AC20FCF7E2FD832000218000FCF7DDFD5B210020FCF7D9FD70BD60050020140A000010B500217C20FCF7CFFD00217820FCF7FE
:40510000CBFD74210020FCF7C7FD10BD70B50D4601461446B020FCF7BFFDFF261D363046FCF7B4FD01090901FF20294301308143002C01D1102041403046FCF7ADFD70BDC1
:40514000F3B589B0FF2001900D208001009048780D7800020543C8788E780002064348790979000201437C200791FCF78FFD06907820FCF78BFD059074210020FCF78CFD95
:4051800018480024049026E00120A04087B20098FCF77CFD03900098FCF778FD02900098FCF774FD039A29465140029A72401143079A424011430BD10698074208D0059884
:4051C000E040C1070998C90F814201D1019405E0641C0498E4B20078A042D5D801980BB0F0BD0000A005002070B5FF257C20FCF74DFD0849002401230A7805E01946A1405E
:40520000014205D0641CE4B2A242F7D8284670BD2546FBE7A005002010B504461820FCF735FD0721C90288436107890C01431820FCF732FD10BD10B50446E020FFF7F8FB56
:4052400020782246401CC3B20021E020FCF7B0FC10BD000010B5044641790079042817D040000843A17B032901D8C9000843617B4A010243A079010207201143C0020143B2
:405280001820FCF709FD21881C20FCF705FD10BD08460149E5E700000204000010B50120FFF716FB41210020FCF7F6FC10BD10B50120FFF739FB40210020FCF7EDFC10BD51
:4052C00010B50C460146B020FCF7E6FCFF2021460D30FCF7E1FC10BD70B50C4601461E461546B020FCF7D8FCE92021468000FCF7D3FC75202946C000FCF7CEFCEB20314682
:405300008000FCF7C9FC6C433B20A1B20001FCF7C3FC70BD70B50C4601461546B020FCF7BBFC21468420FCF7B7FC29468020FCF7B3FC70BD10B50446407821780002014330
:40534000FF20C130FCF7A8FCE078A17800020143FF20C530FCF7A0FC6079217900020143FF20C930FCF798FC10BD70B5A124054624012046FCF78AFC012D07D04108490037
:40538000814202D02046FCF787FC70BD014601221143F5E710B5044640782178000201436820FCF779FCE078A178000201436C20FCF772FC60792179000201437020FCF73F
:4053C0006BFC10BD10B5044640782178000201435820FCF761FCE078A178000201435C20FCF75AFC60792179000201436020FCF753FC10BD10B50446E820FFF719FB20788E
:405400002246401CC3B20021E820FCF7D1FB10BD10B50C460146B020FCF73EFC21460248FCF73AFC10BD00001C0A000010B50C460146B020FCF730FCFF2021460530FCF75B
:405440002BFC10BD70B5054688000521FBF7A8FE84B22946B020FCF71FFC21460448FCF71BFC290272310020FCF716FC70BD0000040A000010B504460146B020FCF70CFCF3
:40548000210273310020FCF707FC10BD10B504460146B020FCF700FC210270310020FCF7FBFB10BD10B504460146B020FCF7F4FB210271310020FCF7EFFB10BDF8B5054604
:4054C0001E4614460F46084600F08AF800902802A1000843304304462946B020FCF7DCFB21460098FCF7D8FB0148C0194655F8BD2F02002070B50D460146B020FCF7CCFB9C
:40550000FF241D342046FCF7C1FB40218843A90101432046FCF7C0FB70BD70B5A124054624012046FCF7B2FB0222002D01D0104300E0904301462046FCF7AEFB70BD70B564
:405540000D460146B020FCF7A7FBFF2029460930FCF7A2FBA12424012046FCF797FB0222002D01D0104300E0904301462046FCF793FB70BD70B50C460546FCF787FB2043E3
:4055800001462846FCF788FB70BDF8B516460D460746FCF77BFB014600202C0003D104E06408401C80B2E207FAD08640A9430E43B1B23846FCF770FBF8BD0000024A10181E
:4055C000405C8007800F70472F02002010B50146B020FCF761FBFF202D30FCF757FB10BD8000FF30413070470246FF20052902D201484018805C70472A02002010B501466C
:40560000B020FCF749FBFF202930FCF73FFB10BD0A4600B501461046FFF7E6FF00BD38B50C46054600216846009109F073F8002804D1009928464C7000F09EFB38BD10B566
:40564000044680780021FFF73BFE01212046FFF7F1F810BD436E002B0CD00B60014660318B781370826E4266CA788A700021816608467047FF20704710B50346446E6033D9
:40568000002C04D0846E002C04D0FF2010BD41669A7001E08166DA70002010BD0021416681667047406E002801D000207047FF20704770B50446C0790D46810610D5DF213B
:4056C0000840E07100F0B6FD0570218941804034218A8180618AC180A18A018101F036F970BD000010B50446FEF782FE01280AD1A1788820054A484380186030007FFDF78A
:405700000BFB012801D000F0A5FA10BDB405002070B50D460446FDF7A7F901281CD02079042801D0072816D1E879AE7900020643A0783146FFF7CCFA012813D03246691CF6
:40574000204600F035FA02212046FDF7D4FE01212046FFF76FF870BD01222421204600F0C3FA70BD28214C2001552046FEF712FA70BD70B50D460646FDF753FE002847D1B3
:4057800020213046FDF7B3FB3446687840346073E87820220002E081A9780843E0816879010228790843218A814203D0F1791143F1712082E8790102A8790843618A8142CC
:4057C00003D0F1791143F1716082687A0102287A0843A18AE180814203D0F1791143F171A082A08A218A8000FBF7DAFC401E618A80B2814200D9608201213046FDF77EFE80
:40580000E87AA97A000201430022304600F0DCFA70BD0000F8B50C460546FDF725F9012849D0294EB07AC00709D02846403000900078002805D0102805D01F212EE01A21BA
:405840002CE0002700E001272846FEF781FA002823D02E4680360822611C7068FBF741FD7068617A20300172A17A417270682146183008220B31FBF734FD214628460422CC
:4058800013313430FBF72DFD39462846FEF742F8002810D1002F0FD012E007210322284600F022FAF28A08212846FDF715FB11212846FDF726FEF8BD06212846FDF724FE09
:4058C000009801210176F8BD6005002010B5FEF761F810BD38B504460020009020790D46042801D007281BD12046FDF7BDF8012817D0684608F00EFF002811D10C486A7860
:40590000807A00991040112210402075607E082210436076204600F079F92046FDF737FE38BD08222421204600F0DEF938BD0000600500207047000070B506460D46084610
:40594000FEF7E2F804463046FEF747FD00280CD0142C04D32946304600F0C7F805E00549A0000A58294630469047284608F022FF70BD0000800A010070B50D4600210028BF
:4059800001D0002400E00C4C002C14D020464030C177807F032802D12046FEF751FE2046FFF7A0FE142D04D20449A800095820468847FEF77DFD70BDD4050020D00A0100E9
:4059C00010B5014640310C4609780E2903D1FEF725F80120207610BD10B54021095C0F2901D1FEF73EF810BD4021095C0F2902D1002120304177704738B5044600220E48C9
:405A000000920D46807A11210840C0060ED52046FEF7F4FC012809D0684608F07BFE002803D12046009900F053F938BD2946204600F05BF838BD00006005002010B5102144
:405A4000FDF755FA10BD10B54978FDF733FF10BD10B5FEF70EF810BD012120304177704710B54021095C0C2901D1FEF717F810BD10B54021095C0D2901D1FEF70BF810BD74
:405A800070B5044600790D46052803D0062801D0082802D12046FDF71FFF68784C21085509212046FDF730FD2046FFF7C8FD2046FCF7DAFF0128A07805D0FFF7E7FC20462E
:405AC000FEF79EFE70BDFFF7EDFCF8E710B50446FF21FDF70CFA16214C200155A078FFF7D5FC2046FEF78CFE10BD70B50C460546FEF77EFC002802D02078687570BD217811
:405B00002846FFF78CFD70BD70B5054648780C46032802D12846FDF7EAFE6078122803D110212846FDF7E3F970BD704738B5044600200D46009004212046FDF7D8F96878DE
:405B40002076E8780002A081A9780843A08168790002E08129790843E081607E04210843607680070CD4684608F0D4FD00281CD12046009900F00EF9607E022108436076BE
:405B8000E079410611D5BF210840E07100F052FB00210090017021894180A1898180217E4170E189C18000F0B5FF38BD7047704770B50446C07815460A4600280AD000207B
:405BC000E070C1B2A078FFF7A9F8A0782946FFF77BF970BD0120F3E770B50546042008700C468420415908222031601CFBF779FB29462046042238310930FBF772FB0D22F6
:405C000029462046FEF792FD002070BD70B5054609200C46087008220021601CFBF76AFB287D607004480922C07AA07029462046FEF77CFD002070BD600500200B4610B5DC
:405C400001460B20187001221846FEF76FFD002010BD0000FEB50024164F03E0002C01D0002500E03D462846FFF71CFD00281BD15F20405D002817D16A4601A92846FFF73C
:405C8000E9FC002810D1019869460A7806782946FEF74CFD022E07D1A8780121FFF72AFC09212846FDF730FC641C2406240ED5D0FEBD0000D405002010B50B4612211970DC
:405CC0008178D977014601221846FEF72FFD10BD10B50B46132119708178D977014601221846FEF723FD10BD38B50546002000900C46684608F00EFD002801D0072038BDDF
:405D000000980D210170447002222946FEF70EFD002038BD0B4610B501460520187001221846FEF703FD002010BD0B4610B501460620187001221846FEF7F8FC002010BD01
:405D400038B5054600200090684608F0E3FC002801D01F2038BD009C022020704C20405D6070A878E0772846FFF769FC022229462046FEF7DBFC38BD10B50B4607211970A1
:405D80008178D977014602221846FEF7CFFC002010BD000010B50B460A49044608880C221A704A795A709870000AD870C8881871000A5871062221461846FEF7B7FC0020E1
:405DC00010BD000060050020F8B50446403417460E460546E289617B8078FFF79BFA002F0DD100F02BFAE2896979FDF71DFAFFF79FF8608A002800D00120FFF78EFBE3882C
:405E0000A08A984200D90346628A218AA878FFF763FAA08A218AC000FBF7C2F981B2ED208000FBF739FFE089E188C0080A30081881B21920C001814200D90146A878FFF7EC
:405E4000F5FAA8783146FFF751F801212846FEF7F1FCF8BD00B500F01FF800BD10B50A4604460B491046FBF79BF94034C01C218A80B2814200D208464900081A81B2054833
:405E8000E182C089002802D0884200D2E08210BD71020000A005002040184008704770B505460C46000702D5A0B2FDF7CDFFE80702D0200EFDF776F870BD70B5054650C82A
:405EC000FCF736FDFBF742FD2889C01F0300FBF74DFC0C07130B171A1D0B0B200B100C0BA0B23146FFF7DBFF70BD204600F040FB70BDFDF76DFF70BD2046FCF778FE70BD89
:405F0000FCF793FF70BDFDF785FF70BDFDF783FF70BDE0B2FEF790F870BD0000F3B5002483B0064627460094019408200294FBF7ADFE05460640400713D55020FBF7A6FE29
:405F4000C0B20090700707D5009CA00803D1FBF763FD012800D10127002204200099FEF787FC28074ED5A820FBF790FE0146644842890A434281002208200091FEF778FC3D
:405F8000300739D50098044340062CD5FF200930FBF77CFEFF201D30FBF778FE8006C00F0190FF200930FBF771FE00281BD00198002818D1534801214170FF20F130FBF7E2
:405FC00065FE0321090288430146FF20F130FBF763FEA1200001FBF759FE02210143A1200001FBF759FE00981021884303D1FBF713FD012800D101270098C00602D502200A
:40600000FBF782FFA8070CD53820FBF73FFEC1B2B00702D508040443012700220220FEF727FCE8071DD02020FBF730FEC0B20090F0070BD000980221000604430098884383
:4060400003D1FBF7E9FC012800D101270098800702D50220FBF758FF002201200099FEF707FCE80605D50120FBF73EFF1020FEF711FCA80628D5FEF7A1FD23490880012081
:40608000FBF732FF214900200870FF200930FBF7FDFD0090FF201D30FBF7F8FD80060099C00F00290DD000280BD116494870A1200001FBF7EBFD02210143A1200001FBF7CE
:4060C000EBFD2020FEF7E6FB680602D54020FEF7E1FB0720694608810020009601944881002F07D069460EC90498002804D0002008F0CCFB05B0F0BD002008F0EBFBF9E776
:406100001406002022020020340200201D020020F0B587B0054605A81E461746019100900C9C04AB06AA02A903A800F0C6F82846FEF73DFE21463046FEF728FE6846017ACB
:406140000398FEF761FC05A904A8FEF737FC6846027E21463846FEF726FC07B0F0BD000070B50548C4782046FCF7FBFE05462046FDF786F9284370BDB405002070B505481B
:4061800084782046FCF7F5FE05462046FDF790F9284370BDB4050020F8B5069E1F463478231FDDB23B460095FFF7B2FF3819001FFEF70AFE0520FEF73EFE04460122294669
:4061C0000798FEF7E1FE3570E00701D00020F8BD1F20F8BD70B51C4615460E46FEF7E7FD29463046FEF7D2FD0320FEF724FE012229462046FEF7C8FE1F2070BDF8B5069DA5
:40620000079E2C780094FFF783FF0120FEF713FE0746002221463046FEF7B6FE3019FEF7C1FE241D2C70F80701D00020F8BD1F20F8BD0000004870477006002008B56A4678
:4062400000210B20FBF74AFD6846007808BD000010B50B4C094923460833A160002142189278002A00D05A54491CC9B20429F6D3FF21A0689A314843A06010BD0403020143
:40628000B405002070B5059C049D2070060A6670060CA670000EE0704806D101400E0843207104221946601DFBF71BF82046042229460930FBF715F870BDF8B5079C0E464D
:4062C000E178069D09020160A77839430902016067783943090201602778394301602079611D4006400E30702079C009107004221846FAF7F6FF2146042209312846FAF72F
:40630000F0FFF8BD10B5FEF759FC084A916848408108C3084409414063405940C30F59404008C9070843906010BD0000B405002010B5012200F016F810BD000010B5054850
:4063400002780121002A017002D10120FBF7B8F9002010BD3802002010B5002200F002F810BD0000F8B5204D0F4629781646012904D02978022901D01120F8BD0C214843C5
:406380001A494418E078A178884201D31220F8BDFAF762FE62780C2361685A4351188CCF8CC1E178601C491CE1706178491CC9B20170A278914201D1002101706868401C25
:4063C00068602878012803D0FAF742FE0020F8BD02202870FAF73CFE002E03D00020FBF76FF9F3E70120FAE738020020F007002010B51148002101704160C0220F48FAF70B
:4064000079FF0E4890220021C030FAF773FF182200210B48FAF76EFF0948102181700C21817306494160C03101610649816006494161FBF72DF910BD38020020A00600205F
:40644000F0070020BB5E0000F9730000F8B50025114C01262F462078002811D001280FD0022802D0032813D111E000F017F8FAF7F3FD6068002800D12670FAF7E9FD07E01B
:406480002078002806D02078012803D000E02770002DE0D00020F8BD38020020FEB51F4D1F4E0027FF2400200C2141438919C978002901D0044602E0401C0228F4D3FF2C07
:4064C0002AD0FAF7C9FD0C204443A41921780C2260685143081801460EC9029301920091076047608760E078401EE0702078401CC0B22070A178884200D12770686800282D
:4065000002D06868401E6860FAF7A2FDA1680029C8D068468847C5E7FEBD000038020020F007002010B5830A082B02D008F0D8F910BD00F0CFF810BD10B50C46014620787D
:4065400000F042FC0028204603D000F007FF002010BD00F0B8FB1F2010BD10B5820A082A02D008F06BFA10BD00F056F910BD0000F8B504464078257800020543002069460A
:4065800008702846FFF7E9FF012827D16946A0780978884222D01C498D4208D0891D8D4205D0C91C8D4202D0C91C8D4204D11221284600F071F80CE00022022805D32079EA
:4065C000E178000201430A05120D12212846FFF7A9FF204608F0C6F81220F8BD0B4EA80A08282A4631460AD0E01C08F071FA204608F0B8F83146284600F00AF8F8BDE01C9B
:4066000000F018F9F3E700000D20000008080020F8B50D4604460020694608701A48844208D0801D844205D0C01C844202D0C01C844201D101200870A00A08280A4629463F
:40664000204609D008F096FA064668460078002805D0012815D110E000F006F9F4E70022002D05D068782978000201430A05120D31462046FFF756FF03E03146204600F02A
:406680000BF83046F8BD00000D2000000148407A7047000064060020F8B5054600200E4600906946082000F007FB002801D00720F8BD009C0F202070A670FFF7E7FFE07004
:4066C0002571280A6071042060702146FF20FFF733FFF8BDF7B5064682B000204B4A4C4B00900420B11AF718964218D008DC002F0FD0012F0FD0052F0FD00D2F12D10CE0C7
:40670000032908D005290CD006290AD0072909D101E0072006E00C2004E0052002E00B2000E006206946001D00F0C6FA002802D0072005B0F0BD009D31462846039A00F0F4
:4067400085F8334804241338301803D0052801D0062805D10499A9710499090AE9710624039800284BD12949891F701A8E4227D006DC002F0BD0012F11D0052F3FD11CE01F
:40678000062823D009282CD00D2838D12FE028191B2181700021C170A41C042012E02E19B01C08220021FAF7A5FD1A481122817A1140B170C07AF07020E0FCF72DF901E021
:4067C000FCF74CF929198870641C18E02919891C0498FCF731F9002801D068710FE0641D0DE02819801C082107F00AFD06E009492819801C08221C31FAF773FD08346C70D7
:406800002946FF20FFF798FE93E7000015200000FEDFFFFF60050020C0B21F2806D8401E034AC0B2105C08700120704700207047940C0100D2B21F2A05D8034B9200D218D3
:40684000403AD26B104770479C0B010070B504460E2016460D462070FFF718FFA070E570280A2071667170BD70B50D46C1B2012014461F2911D88E000848214630184038FA
:40688000C26B28469047002807D104482146F83830184038C26B2846904770BD180C010070B5154C0546212200212046FAF722FD212212492046FAF714FD114A1121907AB7
:4068C0000840C3060F48017802D53023194301E0CF2319400170907AC007207F02D00721084301E0C008C0002077212221462846FAF7F7FC70BD000070060020B30C010060
:40690000600500209006002010B5FCF72DF910BD10B5FCF746F910BD002070470120704710B5FCF78EF910BD0020704710B5FCF78AF910BD024900784871002070470000C0
:406940006406002010B5FCF79AF910BD38B504460020009069460E2000F0AEF9002801D0072038BD00993E200870032088702078C870A07808716088000A487120798871DD
:40698000A088000AC871A0790872E088000A4872207A88722089000AC8720A2048700320FFF7CAFD38BD38B50546002000906946172000F081F9002801D0072038BD009C8C
:4069C0003E2020700120A0702878E070A878207168882946000A60716878A0712879E0712046083006220C31FAF77BFCA879A073E8882146000AE073287A20742889000AF6
:406A00006074A87AA0746889000AE07468792075132060700120FFF78FFD38BDF8B5044600200E46009015466946082000F044F9002801D00020F8BD0099082008708E708D
:406A4000CC70200A08714D7104204870FF20FFF773FDF8BD38B50C460021054600916946072000F029F9002801D0002038BD0099302008708D70CC70200A08710320487019
:406A8000FF20FFF759FD38BD38B50546002000906946112000F010F9002801D0002038BD009C3E2020700520A0702878E07028880822000A2071601D6968FAF712FCA96825
:406AC0000D200A7862734978A173607021460520FFF732FD38BD38B5054600200C4600906946092000F0E8F8002801D0002038BD00991320087001208870CD70280A087192
:406B00004C71200A8871052048700722042000F0EDFBEBE738B504460020009069460C2000F0CAF8002801D0002038BD00990C20087020788870A078C8706088000A087197
:406B40006078487120798871A088000AC871A0790872E088000A487208204870FF20FFF7EBFC38BD38B50446002000906946062000F0A2F8002801D0072038BD009957208C
:406B800008708C70200AC87002204870FF20FFF7D3FC38BDF8B5064600200C46009015466946082000F088F8002801D00020F8BD0099052008708E70CC70200A08714D7110
:406BC00004204870FF20FFF7B7FCF8BDFEB507460020009010480E46019015466946082000F06AF8002801D00720FEBD009C324620460199FFF72AFEA771380AE0710620ED
:406C0000002E03D1290A25726172082060702146FF20FFF791FCFEBD7B0C0000F8B5054600200E4600900C4F6946062000F044F8002801D00720F8BD009C3246394620464C
:406C4000FFF704FEA571280AE071062060702146FF20FFF771FCF8BD7C0C000010B5FDF721FA10BD10B5FDF737FA10BDF8B505460020074600900D4E6946142000F01CF8D8
:406C8000002801D00720F8BD009C3A4631462046FFF7DCFD1022A01DA918FAF722FB142060702146FF20FFF747FCF8BD1720000010B5FBF781FF10BD0A4610B5C1B21046E8
:406CC00007F0E0FC10BD10B507F056FD10BD0000F8B50546C078AF78164C00020743A07D26468000203E8019103004222946FAF7F8FAA07DB38E800082191032291D042B2B
:406D000016D03550A07D0023400080190784A57D204610302B54A07D401CC0B2A075042800D3A375B08E401CB086104600F007FBF8BD00004C080020FEB5144C0025E17D0F
:406D4000204610300D54E07D26468000203E305807F026FDE07D401CC0B2E075042800D3E575B08E401EB0860948C07900280CD00095019511206A46029510815581294611
:406D80000A460020029B07F0A5FDFEBD4C0800206406002010B5074900208875C8752039888605490872487288728882FAF702FE10BD00004C080020A408002010B5FFF75F
:406DC000E9FF002010BD00001B4B10289A792DD00CDC0C2823D004DC05281ED0082829D124E00E2824D00F2824D121E0302818D004DC13281CD01A281CD114E03E2802D0DF
:406E0000572817D111E0500614D5491E012088405979C0B201420BD10CE0012006E0802004E0202002E0022000E00420024201D001207047002070476406002010B50B46E5
:406E40000178401C197001460622581CFAF749FA10BD034610B5084608221946FAF741FA10BD704770477047427812020A8003781A430A8080788870704770B50D460446AA
:406E8000014610222846FAF72CFA214610221031A818FAF726FA70BD427812020A80007802430A80704710B50B4641780A021A800178801C0A431A8001461022981CFAF717
:406EC00010FA10BD427812020A80007802430A807047427812020A80007802430A8070477047427812020A80007802430A807047427812020A8003781A430A808078887058
:406F00007047007808707047427812020A80007802430A80704710B50B460178401C197001460622581CFAF7DCF910BD10B502780B460A701F2A03D8411C581CFAF7D1F9F9
:406F400010BD00780870704770B5054640780C46000208802978062208432080E87800026080A978084360802879207168796071A879A071E91DE01DFAF7B3F9687B6073EB
:406F8000A87BA07370BD0022835C0B70521C491CD2B2082AF8D370477047034610B5084606221946FAF79DF910BD7047704710B502780B460A701F2A03D8411C581CFAF79B
:406FC00090F910BD70B5054640780C46000208802978082208432080A91C201DFAF781F9E87A102200026080A97A08436080294620460C310C30FAF774F970BD02780A7083
:4070000042784A70807888707047427812020A8003781A430A80C27812024A80807802434A80704710B504460088FCF7A5F8002808D0A07814280DD006DC05280AD0132829
:4070400006D107E0022010BD1A2803D03B2801D0122010BD002010BD0078012801D9122070470020704700207047002070470020704710B50088FCF77FF8002801D000209E
:4070800010BD022010BD10B50088FCF775F8002801D0002010BD022010BD10B50088FCF76BF8002801D0002010BD022010BD002070470078272801D91220704700207047E2
:4070C0000078012801D9122070470020704710B5017902884388042921D8012914D09A421DD80124A403A34219D8A02A03D2022915D0032913D0202A11D3817B03290ED820
:40710000012901D0042902D18179012907D84179012904D8407B410701D0C00800D0122010BD00781F2801D9122070470020704701784A0941785201114382780A43C17821
:40714000114302790A43417911438279C0790A43104300D01220704700207047002070470020704700207047002070470178272905D84178252902D88078072801D912206B
:4071800070470020704710B50088FBF7F5FF002801D0002010BD022010BD10B50088FBF7EBFF002801D0002010BD022010BD10B504460088FBF7E0FF002804D0A078012896
:4071C00003D9122010BD022010BD002010BD0020704710B504460088FBF7CEFF002804D06088002803D0002010BD022010BD122010BD000010B50B48017A01290ED0C17A1B
:4072000000290CD001210172407A064BC000403BC1184A884968185CFAF7CDFB10BD0021017210BDA408002030B50D4B9C7AE5001C46403C6055987AC00000194160987A82
